:100000000C9464000C948C000C948C000C948C0068
:100010000C948C000C948C000C948C000C94520664
:100020000C948C000C948C000C948C000C942C0779
:100030000C948C000C948C000C948C000C948C0010
:100040000C9408060C948C000C94FA060C94D406BC
:100050000C948C000C948C000C948C000C948C00F0
:100060000C948C000C948C000200000000240027EB
:10007000002A0000000000230026002900000000E4
:100080000800020100000304070000000000000057
:100090000001020408102040800102040810200121
:1000A000020408102000000000250028002B000496
:1000B000040404040404040202020202020303030F
:1000C000030303005908C81011241FBECFEFD8E066
:1000D000DEBFCDBF11E0A0E0B1E0EAE2F8E202C08D
:1000E00005900D92A239B107D9F722E0A2E9B1E05B
:1000F00001C01D92AC3AB207E1F710E0C3E6D0E0D0
:1001000004C02197FE010E94ED11C236D107C9F744
:100110000E9412090C9408140C940000833081F0A2
:1001200028F4813099F08230A9F008958730A9F041
:100130008830C9F08430B1F4809180008F7D03C095
:10014000809180008F7780938000089584B58F77A9
:1001500084BD089584B58F7DFBCF8091B0008F77EB
:100160008093B00008958091B0008F7DF9CFCF9338
:10017000DF93282F30E0F901E358FF4F8491F90114
:10018000EF56FF4FD491F901E155FF4FC491CC23B5
:10019000A1F081110E948E00EC2FF0E0EE0FFF1F06
:1001A000ED58FF4FA591B491EC91ED2381E090E0E3
:1001B00009F480E0DF91CF91089580E090E0FACFDC
:1001C0001F93CF93DF93282F30E0F901E358FF4FBF
:1001D0008491F901EF56FF4FD491F901E155FF4F9A
:1001E000C491CC23A9F0162F81110E948E00EC2F10
:1001F000F0E0EE0FFF1FEB55FF4FA591B4918FB7C5
:10020000F894EC91111108C0D095DE23DC938FBFD8
:10021000DF91CF911F910895DE2BF8CFCF93DF931D
:1002200090E0FC01EF56FF4F249181559F4FFC0158
:1002300084918823D1F090E0880F991FFC01E75941
:10024000FF4FA591B491FC01EB55FF4FC591D4919F
:1002500061110EC09FB7F8948C91E22FE0958E2328
:100260008C932881E223E8839FBFDF91CF9108958B
:100270008FB7F894EC91E22BEC938FBFF6CFCF932E
:10028000DF93EC0180917202882349F0809177021C
:100290009091780297FD03C060E00E940E01C09328
:1002A0007702D093780280917202882341F061E056
:1002B0008C2F0E940E0160E08C2F0E94E000FE0156
:1002C000E155FF4FE491F0E0EE0FFF1FEB55FF4FBC
:1002D000259134913093850220938402FE01EF56DC
:1002E000FF4FE491E0938602DF91CF9108951F9331
:1002F000CF93DF93182FEB0161E00E940E0120974E
:1003000039F460E0812FDF91CF911F910C94E000D0
:10031000CF3FD10511F461E0F5CFE12FF0E0E358D4
:10032000FF4FE491E33031F140F4E130B1F0E230DD
:10033000E1F0C038D1057CF7E4CFE73029F1E830AF
:1003400059F1E430B1F780918000806280938000A1
:10035000D0938B00C0938A0004C084B5806884BDAC
:10036000C7BDDF91CF911F91089584B5806284BD90
:10037000C8BDF7CF80918000806880938000D093C3
:100380008900C0938800EDCF8091B0008068809391
:10039000B000C093B300E5CF8091B000806280933D
:1003A000B000C093B400DDCF3FB7F8948091A701AF
:1003B0009091A801A091A901B091AA0126B5A89B8E
:1003C00005C02F3F19F00196A11DB11D3FBFBA2FE7
:1003D000A92F982F8827BC01CD01620F711D811DA7
:1003E000911D42E0660F771F881F991F4A95D1F72C
:1003F00008958F929F92AF92BF92CF92DF92EF9229
:10040000FF926B017C010E94D4014B015C01C1147D
:10041000D104E104F104B9F00E94D401681979090A
:100420008A099B09683E73408105910580F321E0AC
:10043000C21AD108E108F10888EE880E83E0981E00
:10044000A11CB11CE4CFFF90EF90DF90CF90BF9044
:10045000AF909F908F9008950895AF92BF92CF92E2
:10046000DF92EF92FF920F931F93CF93DF936C0174
:100470007B018B01040F151FEB015E01AE18BF0855
:10048000C017D10759F06991D601ED91FC91019007
:10049000F081E02DC6010995892B79F7C501DF911F
:1004A000CF911F910F91FF90EF90DF90CF90BF9071
:1004B000AF900895FC01538D448D252F30E0842F9B
:1004C00090E0821B930B541710F0CF96089501977C
:1004D0000895FC01918D828D981761F0A28DAE0F69
:1004E000BF2FB11D5D968C91928D9F5F9F73928FF0
:1004F00090E008958FEF9FEF08952FB7F8948091C3
:10050000AB019091AC01A091AD01B091AE012FBFB4
:100510008093B7019093B801A093B901B093BA0149
:100520008FEA91E00E94690297FF26C02FB7F894E6
:100530008091AB019091AC01A091AD01B091AE0161
:100540002FBF4091B7015091B8016091B9017091EE
:10055000BA01841B950BA60BB70B4091B3015091C8
:10056000B4016091B5017091B60184179507A60793
:10057000B707B0F28FEF9FEF0895FC01918D828D48
:10058000981731F0828DE80FF11D858D90E0089568
:100590008FEF9FEF0895FC01918D228D892F90E0C0
:1005A000805C9F4F821B91098F73992708958FEA72
:1005B00091E00E94CB0221E0892B09F420E0822FF8
:1005C000089580E090E0892B29F00E94D7028111E4
:1005D0000C9400000895FC01A48DA80FB92FB11D43
:1005E000A35ABF4F2C91848D90E001968F73992769
:1005F000848FA689B7892C93A089B1898C91837047
:1006000080648C93938D848D981306C00288F3893F
:10061000E02D80818F7D80830895EF92FF920F936C
:100620001F93CF93DF93EC0181E0888F9B8D8C8D9E
:1006300098131AC0E889F989808185FF15C09FB792
:10064000F894EE89FF896083E889F9898081837055
:10065000806480839FBF81E090E0DF91CF911F9104
:100660000F91FF90EF900895F62E0B8D10E00F5F25
:100670001F4F0F731127E02E8C8D8E110CC00FB6FB
:1006800007FCFACFE889F989808185FFF5CFCE0193
:100690000E94EB02F1CFEB8DEC0FFD2FF11DE35A21
:1006A000FF4FF0829FB7F8940B8FEA89FB89808116
:1006B0008062CFCFCF93DF93EC01888D8823B9F090
:1006C000AA89BB89E889F9898C9185FD03C080815D
:1006D00086FD0DC00FB607FCF7CF8C9185FFF2CFDA
:1006E000808185FFEDCFCE010E94EB02E9CFDF9143
:1006F000CF9108955F926F927F928F929F92AF9267
:10070000BF92CF92DF92EF92FF920F931F93CF93FE
:10071000DF93EC018B016A817B818C819D810E943A
:10072000F90161E088810E940E0160E088810E94E9
:10073000E00062E170E080E090E00E94F90161E099
:1007400088810E94E0008BE990E00197F1F760E07A
:1007500088810E940E018FB7F894C090AB01D090B1
:10076000AC01E090AD01F090AE018FBF88810E9496
:10077000B700019741F52FB7F8948091AB019091A4
:10078000AC01A091AD01B091AE012FBF8C199D09B4
:10079000AE09BF09893E9340A105B10538F34DEF7D
:1007A000E42EF12CC701DF91CF911F910F91FF90A3
:1007B000EF90DF90CF90BF90AF909F908F907F9001
:1007C0006F905F90089588810E94B7007C01892B0B
:1007D00031F73BE3C32EDD24D394C6010197F1F733
:1007E00088810E94B7000197D1F6C6010197F1F701
:1007F0005801380185E0680E711C23E7822E912C88
:1008000097E0C92ED12C512C88810E94B700892BEA
:10081000D9F3C4010197F1F788810E94B7008130B4
:10082000910531F40C2C01C0880F0A94EAF7582A7C
:1008300088810E94B7000197D9F3E1E0CE1AD10870
:1008400018F7F50151925F01FDEF5F1609F4A7CF8C
:10085000A614B704A9F6F801448120818181280FEC
:100860003327331F8281280F311D8381820F932FFD
:10087000911D99274817190609F494CF8EEFE82E99
:10088000F12C90CFCF93DF93EC0188819981009771
:1008900011F00E948F12198218821D821C821B8205
:1008A0001A82DF91CF910895FC0180819181009798
:1008B00011F00C948F120895FC0101900020E9F7CB
:1008C0003197AF01481B590BBC018FEA91E00C94A2
:1008D0002D028F929F92AF92BF92CF92DF92EF92B2
:1008E000FF920F931F93CF93DF93CDB7DEB7A197FE
:1008F0000FB6F894DEBF0FBECDBF6C01990FEE08A6
:10090000FF08F7FE47C06DE28FEA91E00E940D03F9
:100910008C0122273327A9012C193D094E095F09B3
:1009200019A2CE0181967C019AE0892E912CA12CEE
:10093000B12CCA01B901A50194010E949C11605D0E
:10094000F70162937F01211531054105510589F7B2
:1009500090E080E0309719F0CF010E945C04080F0E
:10096000191F89E191E00E945C04800F911FA196FC
:100970000FB6F894DEBF0FBECDBFDF91CF911F91B0
:100980000F91FF90EF90DF90CF90BF90AF909F902E
:100990008F900895A701960119A28E010F5D1F4F38
:1009A0008AE0C82ED12CE12CF12CCA01B901A70193
:1009B00096010E949C11605DF80162938F012115E0
:1009C00031054105510589F7309729F0CF010E9483
:1009D0005C048C01C6CF10E000E0C3CFCF93DF935F
:1009E000D0E0C0E0009719F00E945C04EC0189E1BE
:1009F00091E00E945C048C0F9D1FDF91CF910895C0
:100A00000F931F93CF93DF938C01EB01FC01808147
:100A100091810097E1F06881798161157105A9F0F4
:100A2000428153812C813D814217530770F00E940F
:100A3000E7138C819D81F801958384831D821C823C
:100A4000DF91CF911F910F9108950E948F1288819D
:100A50009981F801918380838A819B81938382832A
:100A60008C819D8195838483198218821B821A82CE
:100A7000E5CFFC0180819181009711F00C94EB107F
:100A800060E070E0CB010895FC0124813581232BC7
:100A900039F421E0FB018081882349F020E007C080
:100AA000808191810E94DE1321E0892BB9F7822F8A
:100AB00008950F931F93CF93DF93EC018881998161
:100AC000009759F02A813B812617370730F081E0E3
:100AD000DF91CF911F910F9108958B016F5F7F4F31
:100AE0000E941813009759F0998388831B830A8307
:100AF0002C813D81232B59F7FC011082E8CF80E047
:100B0000E7CFEF92FF920F931F93CF93DF93EC0108
:100B10007B018A01BA010E94590581110BC0CE01E7
:100B20000E944204CE01DF91CF911F910F91FF905F
:100B3000EF9008951D830C83B701888199810E94ED
:100B4000E713F0CFFC01118210821382128215820A
:100B50001482FB0101900020E9F73197AF01461B99
:100B6000570B0C948105AF92BF92CF92DF92EF9218
:100B7000FF920F931F93CF93DF937C016B015A0178
:100B800089012417350720F48B2D5901042F182FC4
:100B90006BE171E0C7010E94A205D6011496CD91C8
:100BA000DC91AC16BD0620F50C171D0708F4E80112
:100BB000D601ED91FC911197EC0FFD1F1081108271
:100BC0006D917C916A0D7B1D61157105E9F0FB014A
:100BD00001900020E9F73197AF01461B570BC70181
:100BE0000E948105F60180819181C80FD91F188369
:100BF000C701DF91CF911F910F91FF90EF90DF9090
:100C0000CF90BF90AF900895C7010E944204EACFF1
:100C10001F920F920FB60F9211242F933F938F9331
:100C20009F93AF93BF938091AB019091AC01A09142
:100C3000AD01B091AE013091A60123E0230F2D3715
:100C400058F50196A11DB11D2093A6018093AB011B
:100C50009093AC01A093AD01B093AE018091A70138
:100C60009091A801A091A901B091AA010196A11D9E
:100C7000B11D8093A7019093A801A093A901B093FF
:100C8000AA01BF91AF919F918F913F912F910F90AA
:100C90000FBE0F901F90189526E8230F0296A11DF6
:100CA000B11DD2CF1F920F920FB60F9211242F9326
:100CB0003F934F935F936F937F938F939F93AF93E4
:100CC000BF93EF93FF938091980190919901A09128
:100CD0009A01B0919B01892B8A2B8B2BD1F190919A
:100CE0009301E0919401F09195018081892780839F
:100CF0008091980190919901A0919A01B0919B01E6
:100D0000181619061A061B069CF4809198019091FA
:100D10009901A0919A01B0919B010197A109B10994
:100D20008093980190939901A0939A01B0939B01AD
:100D3000FF91EF91BF91AF919F918F917F916F91B3
:100D40005F914F913F912F910F900FBE0F901F9089
:100D5000189580910001E8E6F0E0E4919FEF909310
:100D60000001E13051F030F0E23069F060E00E94C3
:100D7000E000DECF10926E00F9CF90916F009D7F62
:100D800090936F00F3CF909170009D7F90937000CF
:100D900091E09093B0009091B100987F946090930F
:100DA000B1001092B300E2CF1F920F920FB60F92D4
:100DB00011242F933F934F935F936F937F938F9360
:100DC0009F93AF93BF93EF93FF938FEA91E00E94BD
:100DD000EB02FF91EF91BF91AF919F918F917F9126
:100DE0006F915F914F913F912F910F900FBE0F9098
:100DF0001F9018951F920F920FB60F9211242F93E8
:100E00008F939F93EF93FF93E091BF01F091C00107
:100E10008081E091C501F091C60182FD1BC09081E7
:100E20008091C8018F5F8F732091C901821741F0B3
:100E3000E091C801F0E0E155FE4F958F8093C80125
:100E4000FF91EF919F918F912F910F900FBE0F9077
:100E50001F9018958081F4CF1F920F920FB60F92BA
:100E600011242F933F934F935F936F937F938F93AF
:100E70009F93AF93BF93CF93DF93EF93FF938091B3
:100E80009201C0917002D0E087FF24C010928500CB
:100E900010928400809192018F5F809392018091E3
:100EA0009201082E000C990B8C179D0724F4809159
:100EB00092018C30C4F18091840090918500049659
:100EC00080349C4908F47AC0809184009091850018
:100ED000049676C080919201082E000C990B8C1715
:100EE0009D07C4F6E09192018E2FEE0F990BFC0145
:100EF000EE0FFF1FE80FF91FE45BFD4F808186FFB7
:100F0000C9CFE09192018E2FEE0F990BFC01EE0FED
:100F1000FF1FE80FF91FE45BFD4F808160E08F73D6
:100F20000E94E000B7CF2091840030918500E091CD
:100F300092018E2FEE0F990BFC01EE0FFF1FE80FB1
:100F4000F91FE45BFD4F81819281820F931F909383
:100F5000890080938800E09192018E2FEE0F990B0B
:100F6000FC01EE0FFF1FE80FF91FE45BFD4F8081CE
:100F700086FF11C0E09192018E2FEE0F990BFC01BC
:100F8000EE0FFF1FE80FF91FE45BFD4F808161E06A
:100F90008F730E94E000FF91EF91DF91CF91BF919D
:100FA000AF919F918F917F916F915F914F913F9101
:100FB0002F910F900FBE0F901F90189580E49CE921
:100FC00090938900809388008FEF80939201E3CF04
:100FD0008F929F92AF92BF92CF92DF92EF92FF9249
:100FE000CF93209173023091740282179307E8F532
:100FF0004B01AA24BB24C82DC52ED62EE72EFF24D4
:10100000BC2DA42F20917902222361F0829E400101
:101010001124C92D2C9D60011124BD2D249FF001A8
:101020001124AF2FE0917F02E0907A02F0907B02D2
:1010300030917C02E31323C09C01220F331F820FE7
:10104000931F8E0D9F1DE0917C02E80FF92FF11D7B
:10105000C083E0917D02E80FF92FF11DB08320914C
:101060007E02820F911DFC01A083CF91FF90EF9033
:10107000DF90CF90BF90AF909F908F900895880F92
:10108000991F880F991F8E0D9F1D472F5527662783
:101090007727222349F030E0249F7001259FF00C30
:1010A000349FF00C11244F2DE80FF92FF11D4083D0
:1010B000CACF1092B2011092B10188EE93E0A0E085
:1010C000B0E08093B3019093B401A093B501B093C5
:1010D000B6018BE091E09093B0018093AF0185EC75
:1010E00090E09093BC018093BB0184EC90E09093DE
:1010F000BE018093BD0180EC90E09093C00180938D
:10110000BF0181EC90E09093C2018093C10182EC19
:1011100090E09093C4018093C30186EC90E090939B
:10112000C6018093C5011092C8011092C9011092A6
:10113000CA011092CB016CE171E08AE892E00E9452
:10114000A20561E271E080E992E00E94A20566E2F8
:1011500071E086E992E00E94A2056BE271E08CE901
:1011600092E00E94A20560E371E082EA92E00E94B0
:10117000A205809170028C3008F047C091E0980F72
:10118000909370028093870290E0FC01EE0FFF1FA6
:10119000E80FF91FE45BFD4F88EB9BE092838183AE
:1011A00010927202109279021092800210928102C3
:1011B000109282021092830281E080937F028093DA
:1011C0007C0210927D0292E090937E0280937102E5
:1011D0008CE090E090937602809375020E94F31168
:1011E00090937B0280937A02009799F02CE0FC01A7
:1011F00011922A95E9F784E090E09093740280932D
:10120000730286E090E00C943F018FEF8093870299
:10121000C7CF10927602109275021092740210924B
:101220007302EFCFCF93DF93CDB7DEB7A2970FB6A0
:10123000F894DEBF0FBECDBF789484B5826084BDC4
:1012400084B5816084BD85B5826085BD85B58160CA
:1012500085BD80916E00816080936E001092810048
:101260008091810082608093810080918100816003
:1012700080938100809180008160809380008091C4
:10128000B10084608093B1008091B0008160809350
:10129000B00080917A00846080937A0080917A0017
:1012A000826080937A0080917A00816080937A00D6
:1012B00080917A00806880937A001092C10061E08A
:1012C0008DE00E940E01E091BF01F091C00182E02B
:1012D0008083E091BB01F091BC011082E091BD01DF
:1012E000F091BE018FEC80831092C701E091C301A1
:1012F000F091C40186E08083E091C101F091C201C8
:10130000808180618083E091C101F091C201808180
:1013100088608083E091C101F091C2018081806882
:101320008083E091C101F091C20180818F7D808333
:101330008FEA91E00E94CB02892B09F4ADC06BE1EA
:1013400071E0CE0107960E94A2050E947D0297FDE2
:101350001EC08A309105D9F089831A820B851C85BD
:101360000F5F1F4FB801CE0107960E9459058823D1
:1013700061F32F8138858B859C85BE016F5F7F4F20
:10138000820F931F0E94E7131C870B87DECFAF806D
:10139000B884A114B10439F0EB84FC846501E11434
:1013A000F10409F087C01092A5011092A4010FEF7B
:1013B0001FEF86E0B82E68013FEFC31AD30A65E33A
:1013C00071E0CE0101960E94A2058B859C85C8160E
:1013D000D90670F4EF80F88469817A81C7018C0D99
:1013E0009D1D0E94EE138C010E191F09892B11F40B
:1013F0000FEF1FEFCE0101960E945404E090A4016C
:10140000F090A5010F3F100709F09EC01E141F04A5
:101410000CF089C02FEF3FEFA601BE01695F7F4F3F
:10142000CE0101960E94B30526E02E9DC0012F9D9E
:10143000900D1124BE016F5F7F4F86579D4F0E9414
:101440000005CE0101960E94540467E371E08AE82A
:1014500092E00E944405882309F497C067E671E092
:1014600080E992E00E944405182F86E992E00E94EC
:101470003905862F61E0111101C060E00E94E00093
:1014800050E040E06BE171E08AE892E00E94810563
:10149000CE0107960E94540480E090E0892B09F465
:1014A00047CF0E94D702882309F442CF0E94000050
:1014B0003FCF640146012FEF821A920AD6018C9128
:1014C000082E000C990B0E942711892B91F7B1E08F
:1014D000EB1AF108EA0CFB1CF7018081082E000CC6
:1014E000990B0E942711892B39F0EC14FD0420F090
:1014F000F1E0EF1AF108F0CF2FEFE21AF20AA7019C
:101500004C195D095C874B87AC14BD0420F4B6010F
:10151000C5010E94D513EF81F8858B859C85E80F66
:10152000F91F108240CF6F8178856115710539F000
:101530004B855C858AE892E00E94810586CF8AE827
:1015400092E00E94420481CF9801A601BE01695F2A
:101550007F4FCE0101960E94B305BE9CC001BF9C87
:10156000900D1124BE016F5F7F4F86579D4F0E94E3
:101570000005CE0101960E9454045FEFE51AF50ABA
:10158000F092A501E092A40116CF6BE371E08AE826
:1015900092E00E9444058823D9F080E992E00E94FD
:1015A00039056E3008F06E506770606460937C009F
:1015B00080917A00806480937A0080917A0086FD21
:1015C000FCCF80917800909179000E94690458CFF7
:1015D00060E471E08AE892E00E944405882371F09B
:1015E00086E992E00E9439056B0180E992E00E9451
:1015F0003905862FB6010E94770142CF6EE471E073
:101600008AE892E00E944405882309F4D7C080E963
:1016100092E00E943905162F809187028C3008F0E5
:1016200053C061E0812F0E940E0180918702282F14
:1016300030E0F901EE0FFF1FE20FF31FE45BFD4FF7
:10164000912F9F731081107C192B108310928802A8
:10165000109289022CE0622F0E94CD11829FB0016E
:10166000112430E020E0AB01420F531FFA01EE0FCE
:10167000FF1FE40FF51FE45BFD4F908196FD16C040
:101680002F5F3F4F2C30310571F781110FC0109241
:10169000800082E080938100109285001092840087
:1016A000B19A80916F00826080936F00E091870211
:1016B0008E2F90E0FC01EE0FFF1FE80FF91FE45B97
:1016C000FD4F8081806480831091870286E992E0DB
:1016D0000E9439056B016032A2E07A07DCF52091A7
:1016E0008802E8E8CE2ED12CC21AD10827FDD39467
:1016F000CC0CDD1CCC0CDD1C0D2C000CEE08FF0806
:101700004091890228E532E0241B310947FD3395D9
:10171000220F331F220F331F032E000C440B550BD7
:101720002C193D094E095F09DB01653B710514F079
:10173000A4EBB0E0B7FF02C0B0E0A0E00E945D11F2
:1017400024EB30E040E050E00E943311C20ED31E83
:10175000E41EF51E1C3008F093CE2091880288E824
:1017600090E0821B910927FD9395880F991F880FA0
:10177000991FC816D90684F02091890288E592E065
:10178000821B910927FD9395880F991F880F991F38
:10179000C816D9060CF4C6010297880F991F4FB7D7
:1017A000F894212F30E0F901EE0FFF1FE20FF31F35
:1017B000E45BFD4F928381834FBF62CE64E571E0AD
:1017C0008AE892E00E944405882391F161E084E078
:1017D0000E940E0186E992E00E9439056130710590
:1017E00081059105B1F461E084E00E94E0006AEFB8
:1017F00070E080E090E00E94F90180E992E00E94B0
:1018000039052FEF30E0F901E61BF70BBF0183E04C
:10181000F2CE60E084E00E94E0006AEF70E080E0D9
:1018200090E00E94F90180E992E00E943905EFCF33
:101830006AE571E08AE892E00E944405882359F144
:1018400080E992E00E943905CB0169839A8324EFF5
:1018500031E040E050E02B833C834D835E8361E0C8
:101860000E940E0161E089810E94E000BE01635F79
:101870007F4FCE0101960E947A03009711F48F8565
:1018800090E09C012D5F31092230310508F09DCE9A
:101890008CE99FEF9ACE6FE571E08AE892E00E94B2
:1018A0004405882309F180E992E00E943905CB01C3
:1018B00069839A8324EF31E040E050E02B833C833E
:1018C0004D835E8361E00E940E0161E089810E9488
:1018D000E000BE01635F7F4FCE0101960E947A0354
:1018E000009779F68D85CCCF63E671E08AE892E0C7
:1018F0000E944405882361F080E992E00E94390546
:10190000862F0E94B700892BA1F484E291E013C0D6
:101910006AE671E08AE892E00E944405882371F04B
:1019200080E992E00E943905862F0E94B700892B3A
:1019300061F78FE191E00E94EE04A2CD62E771E0D1
:101940008AE892E00E944405882309F436C28CE9B3
:1019500092E00E9439056B8F7C8F8D8F9E8F86E978
:1019600092E00E9439056F8F78A389A39AA380E93A
:1019700092E00E943905862F909100019613CFC006
:10198000E8E6F0E0149117FD7BCD61E00E940E01C6
:101990001123C1F08F8C98A0A9A0BAA0AA24BB24BF
:1019A00060E072E18AE790E0A50194010E943311A2
:1019B00069017A0181E0C81AD108E108F108123002
:1019C00009F0ADC18F8C98A0A9A0BAA0AA24BB240D
:1019D00060E072E18AE790E0A50194010E94331172
:1019E00029013A017A01690191E0C91AD108E10897
:1019F000F108AFEFCA16D104E104F10409F00CF4C8
:101A000053C160E472E48FE090E0A50194010E946C
:101A1000331169017A01B1E0CB1AD108E108F1086C
:101A2000123009F0F8C082E0EFEFCE16D104E104E5
:101A3000F10409F00CF46CC060E970ED83E090E013
:101A4000A50194010E94331169017A01F1E0CF1AD6
:101A5000D108E108F10883E02FEFC216D104E104B8
:101A6000F10409F00CF454C068E478EE81E090E0F1
:101A7000A50194010E94331169017A01B1E0CB1AEA
:101A8000D108E108F10884E0EFEFCE16D104E104BB
:101A9000F104F1F1ECF164E274EF80E090E0A50173
:101AA00094010E94331169017A0191E0C91AD108A9
:101AB000E108F10885E0AFEFCA16D104E104F104B2
:101AC00039F130F162E17AE780E090E0A50194011C
:101AD0000E94331169017A0181E0C81AD108E10836
:101AE000F10886E09FEFC916D104E104F10481F00A
:101AF00078F0730162019AE0F594E794D794C79463
:101B00009A95D1F791E0C91AD108E108F10887E068
:101B10009091B100987F892B8093B100CCC09F3FFA
:101B200009F0AECC60930001E8E6F0E014911F3FAD
:101B300009F4A6CC113039F148F0123009F445C04F
:101B400017FD9ECC61E00E940E0124CF14BC15BC91
:101B500094B5926094BD95B5916095BD262F30E007
:101B6000F901E155FF4FE491F0E0EE0FFF1FEB5557
:101B7000FF4F45915491F901EF56FF4FE491E093E7
:101B8000970110E002CF1092800010928100909196
:101B90008100986090938100909181009160909372
:101BA0008100262F30E0F901E155FF4FE491F0E08C
:101BB000EE0FFF1FEB55FF4F45915491F901EF5682
:101BC000FF4FE491E0939601E0CE1092B0001092A6
:101BD000B1009091B00092609093B0009091B100EC
:101BE00091609093B100262F30E0F901E155FF4F4D
:101BF000E491F0E0EE0FFF1FEB55FF4F459154913C
:101C00005093950140939401F901EF56FF4FE491F1
:101C1000E0939301BACE3FEFC316D104E104F1047F
:101C200009F00CF47AC068E478EE81E090E0A50158
:101C300094010E94331169017A0181E0C81AD10828
:101C4000E108F10884E0111136CF83E0FFEFCF16F1
:101C5000D104E104F10459F154F162E17AE780E042
:101C600090E0A50194010E94331169017A01A1E07D
:101C7000CA1AD108E108F10884E0BFEFCB16D104FD
:101C8000E104F104A1F098F0730162018AE0F59497
:101C9000E794D794C7948A95D1F7A1E0CA1AD108DE
:101CA000E108F10885E003C081E0111131CF95B55D
:101CB000987F892B85BD8B8D9C8DAD8DBE8D2FEF33
:101CC0003FEFA901892B8A2B8B2B81F0AF8DB8A117
:101CD000AA0FBB1F2B8D3C8D4D8D5E8D0E94521126
:101CE00028EE33E040E050E00E949C11113009F4EE
:101CF00042C0123009F451C01111C2CBC7BC2093AD
:101D0000A0013093A1014093A2015093A3018091BF
:101D10006E00826080936E00B3CB82E0C6CF91E00C
:101D2000C114D104E1E0EE06F10484F068E478EE39
:101D300081E090E0A50194010E94331169017A01CC
:101D4000F1E0CF1AD108E108F10893E0113009F071
:101D5000B2CF80918100887F892B809381002B8D69
:101D60003C8D4D8D5E8D232B242B252B09F0AECF82
:101D70002FEF3FEFA901D0928900C09288002093F5
:101D80009C0130939D0140939E0150939F0180914F
:101D90006F00826080936F0073CBC092B30020937A
:101DA00098013093990140939A0150939B0180913F
:101DB000700082608093700063CB69E771E08AE80D
:101DC00092E00E944405882309F4DFC180917702E4
:101DD0009091780297FDDDC061E00E940E0160E005
:101DE000809177020E94E00081E08093720280E996
:101DF00092E00E943905CB010E943F0186E992E002
:101E00000E9439054B015C0194E089169104A104FC
:101E1000B10409F0C1C088EA92E00E943905162F8A
:101E200082EA92E00E9439056B017C018CE992E024
:101E30000E94390555274427442755277727FE2C2C
:101E4000ED2CDC2CCC24EE24FF244C295D296E29BA
:101E50007F29412B90E080E00E94E80788EA92E029
:101E60000E943905162F82EA92E00E9439056B0123
:101E70007C018CE992E00E943905552744274427CC
:101E800055277727FE2CED2CDC2CCC24EE24FF24C8
:101E90004C295D296E297F29412B81E090E00E9429
:101EA000E80788EA92E00E943905162F82EA92E05C
:101EB0000E9439056B017C018CE992E00E94390592
:101EC00055274427442755277727FE2CED2CDC2C5B
:101ED000CC24EE24FF244C295D296E297F29412B37
:101EE00082E090E00E94E80788EA92E00E943905CB
:101EF000162F82EA92E00E9439056B017C018CE981
:101F000092E00E9439055527442744275527772713
:101F1000FE2CED2CDC2CCC24EE24FF244C295D2956
:101F20006E297F29412B83E090E00E94E8078EEA2A
:101F300092E00E94390511E0160F209179021217E4
:101F400009F45BC0215009F453C06F3F09F045C04C
:101F500030E050E040E06FEF7FEF80E090E00E94E3
:101F6000331140917A0250917B02FA01609175021F
:101F700070917602CF01841B950B86179707D8F5D1
:101F80006081629FC001639F900D11249083319600
:101F9000EDCF109272022BCF88EA92E00E943905B1
:101FA000162F82EA92E00E9439056B017C018CE9D0
:101FB00092E00E9439055527442744275527772763
:101FC000FE2CED2CDC2CCC24EE24FF244C295D29A6
:101FD0006E297F29412BC401A8CF812F90E0982F33
:101FE00088270197622F70E00E94D9119B01B9CF19
:101FF00030E020E0B6CF1093790280917A02909180
:102000007B02892B09F43CCA0E94D4010091800212
:102010001091810220918202309183026017710732
:102020008207930740F4609380027093810280934B
:10203000820290938302009180021091810220918C
:10204000820230918302601B710B820B930B6C3206
:10205000714081059105C0F2F894809175029091CC
:1020600076029B8B8A8BE0917A02F0917B027F0152
:10207000BFEFEB1AFB0A80818A8F90917102E09189
:102080008402F091850280918602992309F43FC071
:102090009081982B998F908180958923888F888D46
:1020A0008D8B88E08C8B098D688D1A8D7C898D894C
:1020B0002A893B89D82EC901D701008317FDD02E6C
:1020C0007A95D082D62E39F0111F00C000006083AF
:1020D000000000C0F2CF78E01D91608300000197FE
:1020E00061F79C01F0938502E09384021A8F7C8B48
:1020F000DD8A3B8B2A8B78940E94D4016093800206
:10210000709381028093820290938302B9C9908177
:10211000982B998F908180958923888F888D8F8BBC
:1021200088E08E8B098D688D1A8D7E898F892A892A
:102130003B89D82EDF01C901F7010C9317FDD02E82
:1021400000C000C0DC9200C000C000C000C000C0E1
:102150006C930000D62E7A9541F0111F000000C04C
:1021600000C000C000C000C0E8CF78E0119100C0FE
:102170006C9300C0019709F79C01B0938502A0936E
:1021800084021A8F7E8BDF8AB4CF82E891E0D3CBB2
:1021900080917A0290917B020E948F128091770247
:1021A0009091780297FD03C060E00E940E0182EAE0
:1021B00092E00E9454048CE992E00E94540486E963
:1021C00092E00E94540480E992E00E9454048AE85C
:1021D00092E00C9454041F93FC0199278827BC01BA
:1021E000E89411911032E9F3193010F01E30C8F361
:1021F0001B3251F01D3249F4689406C00E9412113E
:10220000610F711D811D911D119110531A30B0F392
:102210003EF490958095709561957F4F8F4F9F4FBD
:102220001F910895592F482F372F262F660F771F9C
:10223000881F991F660F771F881F991F620F731FD2
:10224000841F951F660F771F881F991F089591118E
:102250000C943011803219F089508550C8F70895D8
:10226000992788270895052E97FB1EF400940E9455
:102270004A1157FD07D00E949C1107FC03D04EF471
:102280000C944A1150954095309521953F4F4F4FF2
:102290005F4F089590958095709561957F4F8F4F12
:1022A0009F4F08950E94BE11A59F900DB49F900D61
:1022B000A49F800D911D11240895B7FF0C94521115
:1022C0000E945211821B930B08952F923F924F92BE
:1022D0005F926F927F928F929F92AF92BF92CF92B6
:1022E000DF92EF92FF920F931F93CF93DF93CDB7BF
:1022F000DEB7CA1BDB0B0FB6F894DEBF0FBECDBF37
:1023000009942A88398848885F846E847D848C8407
:102310009B84AA84B984C884DF80EE80FD800C8110
:102320001B81AA81B981CE0FD11D0FB6F894DEBFF3
:102330000FBECDBFED010895A1E21A2EAA1BBB1B53
:10234000FD010DC0AA1FBB1FEE1FFF1FA217B30781
:10235000E407F50720F0A21BB30BE40BF50B661F97
:10236000771F881F991F1A9469F76095709580955B
:1023700090959B01AC01BD01CF010895A29FB001D2
:10238000B39FC001A39F700D811D1124911DB29FA9
:10239000700D811D1124911D0895991B79E004C0D1
:1023A000991F961708F0961B881F7A95C9F7809594
:1023B0000895AA1BBB1B51E107C0AA1FBB1FA6178C
:1023C000B70710F0A61BB70B881F991F5A95A9F7DE
:1023D00080959095BC01CD010895EE0FFF1F0590EB
:1023E000F491E02D09940F931F93CF93DF938230E4
:1023F000910510F482E090E0E091AA02F091AB0226
:1024000030E020E0B0E0A0E0309799F421153105EC
:1024100009F44AC0281B390B24303105D8F58A81CC
:102420009B816115710589F1FB0193838283FE0114
:1024300011C0408151810281138148175907E0F092
:102440004817590799F4109761F012960C93129758
:1024500013961C933296CF01DF91CF911F910F916C
:1024600008950093AA021093AB02F4CF2115310511
:1024700051F04217530738F0A901DB019A01BD0161
:10248000DF01F801C1CFEF01F9CF9093AB02809348
:10249000AA02CDCFFE01E20FF31F81939193225048
:1024A000310939832883D7CF2091A8023091A9021E
:1024B000232B41F420910301309104013093A902B0
:1024C0002093A802209101013091020121153105CC
:1024D00041F42DB73EB74091050150910601241BF0
:1024E000350BE091A802F091A902E217F307A0F4DE
:1024F0002E1B3F0B2817390778F0AC014E5F5F4F5A
:102500002417350748F04E0F5F1F5093A9024093E0
:10251000A802819391939FCFF0E0E0E09CCFCF930E
:10252000DF930097E9F0FC01329713821282A091A9
:10253000AA02B091AB02ED0130E020E01097A1F4C7
:1025400020813181820F931F2091A8023091A9022E
:102550002817390709F061C0F093A902E093A80297
:10256000DF91CF910895EA01CE17DF07E8F54A81A0
:102570005B819E0141155105B1F7E901FB83EA83B7
:1025800049915991C40FD51FEC17FD0761F4808163
:1025900091810296840F951FE90199838883828136
:1025A00093819B838A83F0E0E0E012968D919C9169
:1025B00013970097B9F52D913C911197CD01029693
:1025C000820F931F2091A8023091A9022817390782
:1025D00039F6309751F51092AB021092AA02B093DF
:1025E000A902A093A802BCCFD383C28340815181AA
:1025F000840F951FC817D90761F44E5F5F4F88811C
:102600009981480F591F518340838A819B8193830D
:1026100082832115310509F0B0CFF093AB02E0932E
:10262000AA029ECFFD01DC01C0CF13821282D7CF58
:10263000B0E0A0E0EEE1F3E10C9467118C010097AB
:1026400051F4CB010E94F3118C01C801CDB7DEB764
:10265000E0E10C948311FC01E60FF71F9C0122506E
:102660003109E217F30708F49DC0D901CD91DC913F
:102670001197C617D70798F0C530D10530F3CE01B2
:1026800004978617970708F3C61BD70B2297C193A9
:10269000D1936D937C93CF010E948F12D6CF5B01B3
:1026A000AC1ABD0A4C018C0E9D1EA091AA02B091DD
:1026B000AB02512C412CF12CE12C109731F580917B
:1026C000A8029091A9028815990509F05CC04616E8
:1026D000570608F058C080910101909102010097BF
:1026E00041F48DB79EB74091050150910601841BBE
:1026F000950BE817F90708F055C0F093A902E0938D
:10270000A802F90171836083A0CF8D919C911197EC
:1027100012966C90129713967C901397A815B90592
:1027200059F56C0142E0C40ED11CCA14DB0420F13F
:10273000AC014A195B09DA011296159780F06282A2
:10274000738251834083D9016D937C93E114F1042A
:1027500071F0D7011396FC93EE93129776CF2296E1
:102760008C0F9D1FF90191838083F301EFCFF093CC
:10277000AB02E093AA0269CF4816590608F42C016F
:102780007D01D3019ACFCB010E94F3117C01009708
:1027900049F0AE01B8010E94D513C8010E948F1202
:1027A000870153CF10E000E050CFFB01DC0102C0F5
:1027B00001900D9241505040D8F70895FB01DC0183
:1027C0008D91019080190110D9F3990B0895FB01A7
:1027D000DC0101900D920020E1F70895FB01519179
:1027E0005523A9F0BF01DC014D9145174111E1F7D7
:1027F00059F4CD010190002049F04D91401541114F
:10280000C9F3FB014111EFCF81E090E001970895FA
:1028100010E0C3E6D0E004C0FE010E94ED11219655
:0A282000C436D107C9F7F894FFCFC2
:10282A00FF0000AC028000000000000D032D025AD8
:10283A00025A03CB026902BD020D0A0061726730B7
:10284A00006172673100617267320061726733003A
:10285A0061726734005F004C4544005245414400B0
:10286A004C45444252494748544E455353005345F8
:10287A0052564F004D4F544F520054454D50004848
:10288A00554D00425554544F4E00425554544F4EE4
:10289A00320042555A5A4552004E454F5049584502
:1028AA004C004E6F7420696D706C656D656E746551
:0228BA006400B8
:00000001FF
