:100000000C9462000C948A000C948A000C948A0070
:100010000C948A000C948A000C948A000C948A0038
:100020000C948A000C948A000C948A000C94410A67
:100030000C948A000C948A000C948A000C948A0018
:100040000C949F090C948A000C940F0A0C94E909F3
:100050000C948A000C948A000C948A000C948A00F8
:100060000C94FD0A0C948A00000000002400270074
:100070002A0000000000250028002B0000000000DE
:1000800023002600290004040404040404040202DA
:100090000202020203030303030301020408102007
:1000A0004080010204081020010204081020000012
:1000B0000008000201000003040700000000000027
:1000C00000007C0C11241FBECFEFD8E0DEBFCDBFF7
:1000D00011E0A0E0B1E0ECE0FBE202C005900D927F
:1000E000A034B107D9F723E0A0E4B1E001C01D922C
:1000F000A936B207E1F710E0C2E6D0E004C02197CC
:10010000FE010E944514C136D107C9F70E94CC0CEC
:100110000C9484150C940000833081F028F4813015
:1001200099F08230A9F008958730A9F08830C9F09D
:100130008430B1F4809180008F7D03C08091800075
:100140008F7780938000089584B58F7784BD08955C
:1001500084B58F7DFBCF8091B0008F778093B00006
:1001600008958091B0008F7DF9CFCF93DF93282F32
:1001700030E0F901E255FF4F8491F901E656FF4F57
:10018000D491F901EA57FF4FC491CC23A1F081111A
:100190000E948C00EC2FF0E0EE0FFF1FE458FF4FA1
:1001A000A591B491EC91ED2381E090E009F480E019
:1001B000DF91CF91089580E090E0FACF1F93CF9325
:1001C000DF93282F30E0F901E255FF4F8491F901C8
:1001D000E656FF4FD491F901EA57FF4FC491CC2363
:1001E000A9F0162F81110E948C00EC2FF0E0EE0F89
:1001F000FF1FEE58FF4FA591B4918FB7F894EC9183
:10020000111108C0D095DE23DC938FBFDF91CF9111
:100210001F910895DE2BF8CFCF93DF9390E0FC0180
:10022000E656FF4F24918A579F4FFC018491882303
:10023000D1F090E0880F991FFC01E859FF4FA5917C
:10024000B491FC01EE58FF4FC591D49161110EC0DD
:100250009FB7F8948C91E22FE0958E238C932881A0
:10026000E223E8839FBFDF91CF9108958FB7F89481
:10027000EC91E22BEC938FBFF6CF3FB7F8948091CF
:10028000340290913502A0913602B091370226B522
:10029000A89B05C02F3F19F00196A11DB11D3FBFBE
:1002A000BA2FA92F982F8827BC01CD01620F711D8D
:1002B000811D911D42E0660F771F881F991F4A9587
:1002C000D1F708958F929F92AF92BF92CF92DF9213
:1002D000EF92FF924B015C010E943D016B017C019A
:1002E0000E943D016C197D098E099F09683E73408B
:1002F00081059105A8F321E0821A9108A108B108AF
:1003000088EEC80E83E0D81EE11CF11C8114910414
:10031000A104B10429F7FF90EF90DF90CF90BF9038
:10032000AF909F908F90089508950895AF92BF92D7
:10033000CF92DF92EF92FF920F931F93CF93DF93B1
:100340006C017B018B01040F151FEB015E01AE18E0
:10035000BF08C017D10759F06991D601ED91FC9102
:100360000190F081E02DC6010995892B79F7C5012F
:10037000DF91CF911F910F91FF90EF90DF90CF9081
:10038000BF90AF900895FC01538D448D252F30E030
:10039000842F90E0821B930B541710F0CF96089592
:1003A00001970895FC01918D828D981761F0A28DBF
:1003B000AE0FBF2FB11D5D968C91928D9F5F9F7385
:1003C000928F90E008958FEF9FEF0895FC01918D3B
:1003D000828D981731F0828DE80FF11D858D90E0A8
:1003E00008958FEF9FEF0895FC01918D228D892F45
:1003F00090E0805C9F4F821B91098F73992708952D
:100400008AEA92E00E94F40121E0892B09F420E0BD
:10041000822F089580E090E0892B29F00E9400024D
:1004200081110C9400000895FC01A48DA80FB92F30
:10043000B11DA35ABF4F2C91848D90E001968F730C
:100440009927848FA689B7892C93A089B1898C912B
:10045000837080648C93938D848D981306C002887A
:10046000F389E02D80818F7D80830895EF92FF9244
:100470000F931F93CF93DF93EC0181E0888F9B8DC7
:100480008C8D98131AC0E889F989808185FF15C081
:100490009FB7F894EE89FF896083E889F9898081A4
:1004A0008370806480839FBF81E090E0DF91CF9173
:1004B0001F910F91FF90EF900895F62E0B8D10E095
:1004C0000F5F1F4F0F731127E02E8C8D8E110CC004
:1004D0000FB607FCFACFE889F989808185FFF5CF4F
:1004E000CE010E941402F1CFEB8DEC0FFD2FF11D18
:1004F000E35AFF4FF0829FB7F8940B8FEA89FB898C
:1005000080818062CFCFCF93DF93EC01888D8823E9
:10051000B9F0AA89BB89E889F9898C9185FD03C066
:10052000808186FD0DC00FB607FCF7CF8C9185FF4B
:10053000F2CF808185FFEDCFCE010E941402E9CF7A
:10054000DF91CF9108958F929F92AF92BF92CF92F9
:10055000DF92EF92FF92FC01828158E5C52E52E0B6
:10056000D52EC81AD10887FDD394CC0CDD1CCC0C39
:10057000DD1C0D2C000CEE08FF08818178E8872E29
:10058000912C881A910887FD9394880C991C880CEB
:10059000991C092C000CAA08BB0880818F3FD1F15F
:1005A00090E0FC01EE0FFF1FE80FF91FEA57FE4F26
:1005B0008181928133E0880F991F3A95E1F7B0E08D
:1005C000A0E044E0B595A795979587954A95D1F712
:1005D00002969C012F5F3F4F032E000C440B550BDE
:1005E000281939094A095B09A4EBB0E00E94AA1155
:1005F000A7019601281939094A095B090E948B1144
:10060000C901FF90EF90DF90CF90BF90AF909F9087
:100610008F90089590E080E0DCCFCF92DF92EF9250
:10062000FF92CF93DF93EC01603282E07807CCF544
:10063000653B710514F064EB70E0898128E830E0D7
:10064000281B310987FD3395220F331F220F331FDB
:100650006901330FEE08FF088A8128E532E0281B84
:10066000310987FD3395220F331F220F331F032ECD
:10067000000C440B550B2C193D094E095F09DB0199
:1006800077FF02C0B0E0A0E00E94B51124EB30E09B
:1006900040E050E00E948B11C20ED31EE41EF51EF6
:1006A000B601E881EC3070F5298188E890E0821B82
:1006B000910927FD9395880F991F880F991F681737
:1006C00079077CF02A8188E592E0821B910927FD59
:1006D0009395880F991F880F991F681779070CF455
:1006E000CB010297880F991F4FB7F8942E2F30E057
:1006F000F901EE0FFF1FE20FF31FEA57FE4F92833F
:1007000081834FBFDF91CF91FF90EF90DF90CF902B
:1007100008951F93CF93DF93EC01162F88818C30BF
:1007200008F04EC061E0812F0E940C018881282FC3
:1007300030E0F901EE0FFF1FE20FF31FEA57FE4F03
:100740001F736081607C612B608319821A822CE0A8
:10075000622F0E942514829FB001112430E020E016
:10076000AB01420F531FFA01EE0FFF1FE40FF51FFD
:10077000EA57FE4F908196FD16C02F5F3F4F2C30F9
:10078000310571F781110FC01092800082E08093D3
:1007900081001092850010928400B19A80916F00C0
:1007A000826080936F00E8818E2F90E0FC01EE0F55
:1007B000FF1FE80FF91FEA57FE4F80818064808396
:1007C0008881DF91CF911F91089520916101260FBB
:1007D0003327331F21323105ECF420918002FC01D4
:1007E00090E080E0243069F082E00895A0916101FA
:1007F0002191AC014F5B5E4FA40FB52FB11D2C931F
:100800000196861798F380916101680F60936101EA
:1008100080E0089581E008951092800281E0809345
:100820007F0210925A0261E082E10E94DE0061E0E4
:1008300083E10E94DE00E9EBF0E080818E7F80831F
:1008400080818D7F808388E48093B80085E48093E5
:10085000BC000895CF93DF9391E0909340018823EB
:10086000B9F0C091B800D091BA008091BC008A7BE9
:100870008093BC0060E082E10E94DE0060E083E1E2
:100880000E94DE000E940C04D093BA00C093B8000E
:10089000DF91CF9108958F929F92AF92BF92CF92A6
:1008A000DF92EF92FF920F931F93CF93DF93D0913C
:1008B000A902D13208F0D7C0182FC091A8020E9417
:1008C0003D016B017C018091800281116BC082E04F
:1008D0008093800210937F028FEF80937E021092AC
:1008E0007D02D0937C02A8E8B2E0ECE5F2E080E083
:1008F000D81391C010925B0280915B02CC0FC82B81
:10090000C0935B0280915A02813009F088C0109236
:100910005A020E943D016B017C0180915B02809331
:10092000BB008091820290918302A0918402B091D9
:100930008502892B8A2B8B2BA1F00E943D0100910F
:1009400082021091830220918402309185026C19F9
:100950007D098E099F09061717072807390708F42C
:1009600042C08091BC0083FDD8CF85EC8093BC0051
:100970000E943D016B017C0180918002823009F46C
:1009800050C080917E028F3F09F46FC080917E023B
:10099000803209F46CC080917E02803309F469C012
:1009A00084E026C08091820290918302A09184020B
:1009B000B0918502892B8A2B8B2B09F484CF0E945E
:1009C0003D018090820290908302A0908402B090BA
:1009D00085026C197D098E099F0986169706A8065F
:1009E000B90608F070CF809181020E942A0485E048
:1009F000109287021092A90210928602DF91CF9185
:100A00001F910F91FF90EF90DF90CF90BF90AF902C
:100A10009F908F9008959D9191938F5F69CF85EE00
:100A2000A5CF8091820290918302A0918402B0911F
:100A30008502892B8A2B8B2B09F49ECF0E943D01C6
:100A400000918202109183022091840230918502EC
:100A50006C197D098E099F090617170728073907A2
:100A600008F08ACFC0CF81E0C3CF80E0C1CF82E061
:100A7000BFCF83E0BDCF1F93CF93DF93EA01122F47
:100A8000DC0111968D919C91DC01ED91FC9102802D
:100A9000F381E02D0995C817D90729F4812F0E9409
:100AA0004B0491E0811190E0892FDF91CF911F914C
:100AB0000895CF93DF93EC018B818823A1F0888187
:100AC00091E0909386028093A80210928702109280
:100AD000A90281E00E944B0491E0811190E0892FEE
:100AE000DF91CF910895109239021092380210923E
:100AF00087021092A9020E940C0484E991E090936D
:100B0000AB018093AA0185E991E09093AD018093B8
:100B1000AC0181E08B83CE010E945905982F811191
:100B2000CECFDDCF0895E091390280913802E817E9
:100B300030F4F0E0E65CFD4F808190E008958FEFA7
:100B40009FEF089590913902809138022FEF3FEF87
:100B5000981748F4E92FF0E0E65CFD4F208130E083
:100B60009F5F90933902C901089580913802909156
:100B70003902891B990B0895CF92DF92EF92FF9271
:100B80000F931F93CF93DF937C01CB018A012091B8
:100B90008602222389F0EB016B01C40ED51ECC1511
:100BA000DD0569F06991D701ED91FC910190F0812B
:100BB000E02DC7010995F3CF642F0E94E503C8011A
:100BC000DF91CF911F910F91FF90EF90DF90CF9029
:100BD0000895CF93DF931F92CDB7DEB7698320913D
:100BE00086022223F9F02091A902203258F021E058
:100BF00030E0FC013383228390E080E00F90DF91AE
:100C0000CF91089580918702E82FF0E0E857FD4FDB
:100C1000998190838F5F809387028093A90281E0FE
:100C200090E0ECCF61E0CE0101960E94E503F7CFA2
:100C300090E080E008951F93CF93DF9300D000D021
:100C40001F92CDB7DEB7880F880F8A5F89831A821B
:100C50001B826C837D8380915F0390916003FC0114
:100C60002481358125303105E0F0208111E0109399
:100C700086022093A802109287021092A90221E016
:100C800045E050E0BE016F5F7F4F0E943B0581272A
:100C90000F900F900F900F900F90DF91CF911F91B9
:100CA000089581E0F5CF70E060E080E00E941B06CF
:100CB000609106017091070181E00E941B0670E0BF
:100CC00060E082E00E941B066091060170910701BE
:100CD00083E00E941B0670E060E084E00E941B0637
:100CE000609106017091070185E00E941B0670E08B
:100CF00060E086E00E941B0660910601709107018A
:100D000087E00C941B0670E060E080E00E941B0608
:100D100070E060E081E00E941B0670E060E082E02D
:100D20000E941B0670E060E083E00E941B0670E0FA
:100D300060E084E00E941B0670E060E085E00E94B5
:100D40001B0670E060E086E00E941B0670E060E039
:100D500087E00C941B0670E060E080E00E941B06B8
:100D600060ED77E081E00E941B0670E060E082E0C9
:100D70000E941B0660ED77E083E00E941B0660ED99
:100D800077E084E00E941B0670E060E085E00E944E
:100D90001B0660ED77E086E00E941B0670E060E0D5
:100DA00087E00C941B0660ED77E080E00E941B0654
:100DB00070E060E081E00E941B0660ED77E082E079
:100DC0000E941B0670E060E083E00E941B0670E05A
:100DD00060E084E00E941B0660ED77E085E00E9401
:100DE0001B0670E060E086E00E941B0660ED77E085
:100DF00087E00C941B06609106017091070180E06A
:100E00000E941B0670E060E081E00E941B0660917A
:100E100006017091070182E00E941B0670E060E00D
:100E200083E00E941B06609106017091070184E037
:100E30000E941B0670E060E085E00E941B06609146
:100E400006017091070186E00E941B0670E060E0D9
:100E500087E00C941B06CF93DF9300D0CDB7DEB7AD
:100E600089836A8380915F0390916003FC012481F0
:100E700035812230310590F0208131E030938602B7
:100E80002093A802109287021092A90221E042E06A
:100E900050E0BE016F5F7F4F0E943B050F900F90A7
:100EA000DF91CF9108952F923F924F925F926F9270
:100EB0007F928F929F92AF92BF92CF92DF92EF92EA
:100EC000FF920F931F93CF93DF931F92CDB7DEB79F
:100ED0006B017C0120E030E040E85FE30E945B12A0
:100EE00087FDECC020E030EC4AE555E4C701B601CF
:100EF0000E94B31318160CF4E8C06091610370915E
:100F0000620380916303909164030E9401134B017B
:100F10005C0120E030E040E855E4C701B6010E94E2
:100F2000B8139B01AC01C501B4010E94601220E01E
:100F300030E040E05FE30E94EF1120E030E040E865
:100F40005FE30E94EE116B017C0120E030E040E4A1
:100F500050E40E945B1287FDC0C020E030E04FE704
:100F600053E4C701B6010E94B31318160CF4BBC0BA
:100F7000C701B6010E94D212962E1982E0905F033B
:100F8000F0906003D70114968D919C911597892B51
:100F900009F41AC18C9191E0909386028093A80283
:100FA000109287021092A90220E041E050E0BE01B9
:100FB0006F5F7F4FC7010E943B05882309F404C17E
:100FC0008824839485EC382EF701C480D58001E015
:100FD000C114D10409F400E0A02EB12CD7012C904B
:100FE0000E943D012B013C0180918002811182C051
:100FF000102F8092800200937F02BFEFB0937E0299
:1010000010927D028FEF800F80937C0280925B02B2
:1010100080915B02220C282A20925B0280915A0266
:10102000813009F0A8C010925A020E943D012B01A4
:101030003C0180915B028093BB0080918202909181
:101040008302A0918402B0918502892B8A2B8B2B7D
:10105000A1F00E943D0120918202309183024091D3
:10106000840250918502641975098609970926172B
:1010700037074807590708F45EC08091BC0083FD1C
:10108000D8CF3092BC000E943D012B013C018091E1
:101090008002813009F473C080917D02801710F4C2
:1010A00010917D02ECE5F2E0AAE3B2E080E0811766
:1010B00009F446C091919D938F5FF9CFC12CD12C3B
:1010C00040E8E42E4FE3F42E18CFC12C30ECD32EA1
:1010D0003AE5E32E35E4F32E10CFC12CD12C20E4D9
:1010E000E22EFE2C45CFC12CD12C9FE7E92E93E4B4
:1010F000F92E3ECF8091820290918302A0918402CA
:10110000B0918502892B8A2B8B2B09F46DCF0E941D
:101110003D012091820230918302409184025091DE
:101120008502641975098609970926173707480744
:10113000590708F059CF809181020E942A0410E0DB
:1011400010923902109338021A151B04E9F590E049
:1011500080E08A159B05A8F5D70111968D919C9189
:10116000DC01ED91FC910284F385E02D09958983E2
:1011700081E090E0EECFE5EEE093BC0084CF80917B
:10118000820290918302A0918402B0918502892B02
:101190008A2B8B2B09F47BCF0E943D012091820288
:1011A000309183024091840250918502641975093F
:1011B00086099709261737074807590708F067CFA8
:1011C000BACFCD2809F400CF1981612F6F76606105
:1011D00080E00E942B07692D8EEF0E942B07612F64
:1011E00080E00E942B0765E070E080E090E00E94C4
:1011F0006201612F606A80E00E942B070F90DF91EF
:10120000CF911F910F91FF90EF90DF90CF90BF9003
:10121000AF909F908F907F906F905F904F903F9096
:101220002F900895FC0101900020E9F73197AF015C
:10123000481B590BBC018AEA92E00C94960185ED9B
:101240008093BC008091820290918302A0918402DD
:10125000B09185020796A11DB11D23E0B695A79513
:10126000979587952A95D1F72091BC0024FD03C05E
:101270001092800208954091820250918302609101
:10128000840270918502452B462B472B69F300970A
:10129000A105B10541F02AE22A95F1F700C00197B6
:1012A000A109B109E1CF809181020C942A040F9326
:1012B0001F93CF93DF9360E08CE00E94DE0083E019
:1012C00090E00197F1F761E08CE00E94DE0083E29C
:1012D00090E00197F1F760E08CE00E94DE00E7EA21
:1012E000F0E06491E3E9F0E0E491F0E0EE0FFF1F3D
:1012F000E458FF4F8591949100E412E42FE030E030
:10130000462F0E941C0C611571058105910529F07D
:101310006F5F7F4F8F4F9F4F9F70EB0162E370E0D5
:1013200080E090E00E946201CE016AE370E00E94DA
:101330003114CB01DF91CF911F910F9108951F922E
:101340000F920FB60F9211242F933F938F939F9379
:10135000AF93BF938091300290913102A0913202FD
:10136000B091330230912F0223E0230F2D3758F52F
:101370000196A11DB11D20932F02809330029093FE
:101380003102A0933202B0933302809134029091E3
:101390003502A0913602B09137020196A11DB11D10
:1013A0008093340290933502A0933602B0933702B3
:1013B000BF91AF919F918F913F912F910F900FBE51
:1013C0000F901F90189526E8230F0296A11DB11DBE
:1013D000D2CF1F920F920FB60F9211242F933F93EB
:1013E0004F935F936F937F938F939F93AF93BF932D
:1013F000EF93FF938AEA92E00E941402FF91EF912B
:10140000BF91AF919F918F917F916F915F914F911C
:101410003F912F910F900FBE0F901F9018951F9224
:101420000F920FB60F9211242F938F939F93EF93E8
:10143000FF93E091BA02F091BB028081E091C0027B
:10144000F091C10282FD1BC090818091C3028F5F29
:101450008F732091C402821741F0E091C302F0E043
:10146000E655FD4F958F8093C302FF91EF919F91B9
:101470008F912F910F900FBE0F901F901895808124
:10148000F4CF1F920F920FB60F9211242F933F9318
:101490004F935F936F937F938F939F93AF93BF937C
:1014A000CF93DF93EF93FF9380918401C0918501E7
:1014B000D0E087FF24C010928500109284008091B4
:1014C00084018F5F8093840180918401082E000C39
:1014D000990B8C179D0724F4809184018C30C4F102
:1014E0008091840090918500049680349C4908F492
:1014F0007AC08091840090918500049676C0809196
:101500008401082E000C990B8C179D07C4F6E091FE
:1015100084018E2FEE0F990BFC01EE0FFF1FE80FD9
:10152000F91FEA57FE4F808186FFC9CFE091840101
:101530008E2FEE0F990BFC01EE0FFF1FE80FF91F26
:10154000EA57FE4F808160E08F730E94DE00B7CFC4
:101550002091840030918500E09184018E2FEE0F60
:10156000990BFC01EE0FFF1FE80FF91FEA57FE4F22
:1015700081819281820F931F9093890080938800CC
:10158000E09184018E2FEE0F990BFC01EE0FFF1FEF
:10159000E80FF91FEA57FE4F808186FF11C0E091E6
:1015A00084018E2FEE0F990BFC01EE0FFF1FE80F49
:1015B000F91FEA57FE4F808161E08F730E94DE00C1
:1015C000FF91EF91DF91CF91BF91AF919F918F915B
:1015D0007F916F915F914F913F912F910F900FBE2F
:1015E0000F901F90189580E49CE990938900809358
:1015F00088008FEF80938401E3CF1F920F920FB684
:101600000F9211242F933F934F935F936F937F9388
:101610008F939F93AF93BF93EF93FF938091B90004
:10162000887F803609F44AC0F0F5883209F4A7C0F3
:1016300018F5803109F49BC0B8F4882309F4F9C087
:10164000883009F494C0FF91EF91BF91AF919F91C1
:101650008F917F916F915F914F913F912F910F905B
:101660000FBE0F901F901895883109F488C0803202
:1016700051F780937E0214C0803409F49DC040F479
:101680008033B9F38833F9F680937E0285ECB0C0DD
:10169000803509F485C0883509F496C0883499F6F8
:1016A0000E941F09D0CF883909F48CC038F58837DB
:1016B00029F050F4883611F0803729F683E08093C2
:1016C00080021092830157C0883809F47BC08039AA
:1016D00019F0803809F0B7CF80918301803208F08B
:1016E00071C0E091830181E08E0F8093830180912E
:1016F000BB00F0E0ED59FE4F80833DC0803B39F0E8
:10170000E0F4803A09F479C0883A09F09CCF84E08B
:10171000809380021092620110926101E091AA010F
:10172000F091AB0109958091610181110FC081E0B9
:10173000809361011092410109C0803C09F4A6CF59
:10174000883C09F4A3CF883B09F07DCFE09162018A
:1017500081E08E0F80936201F0E0EF5BFE4F8081AD
:101760008093BB00909162018091610129C08091BA
:101770005B028093BB0085EC8093BC0064CF9091AA
:101780007D0280917C02981758F5E0917D0281E0FE
:101790008E0F80937D02F0E0E45AFD4F8081E9CF07
:1017A000E0917D0281E08E0F80937D028091BB00ED
:1017B000F0E0E45AFD4F808390917D0280917C029D
:1017C0009817C8F285E8D8CFE0917D0281E08E0FAE
:1017D00080937D028091BB00F0E0E45AFD4F80834E
:1017E00080917F0281115CCF81E080935A0284EA6C
:1017F0008093BC001092800226CF85EC8093BC00C1
:101800001092800280918301803230F4E091830154
:10181000F0E0ED59FE4F10826091830170E0E0919D
:10182000AC01F091AD0183E691E00995109283013E
:101830000ACF10927E0234CFCF92DF92EF92FF92C6
:101840000F931F93E82FF92F05C0015011092109AB
:10185000310961F1908196239417B9F305C00150C5
:1018600011092109310911F1908196239413F7CFC1
:10187000C12CD12CE12CF12C0AC08FEFC81AD80A48
:10188000E80AF80A0C151D052E053F0579F0808140
:101890008623841791F36C2D7D2D8E2D9F2D1F9106
:1018A0000F91FF90EF90DF90CF90089560E070E08F
:1018B00080E090E01F910F91FF90EF90DF90CF902C
:1018C0000895FC01909185019C3098F481E0890F86
:1018D000809385019083892F90E0FC01EE0FFF1F1C
:1018E000E80FF91FEA57FE4F88EB9BE09283818354
:1018F00008958FEF80830895EAEAF2E0138212825E
:1019000088EE93E0A0E0B0E084839583A683B7835C
:1019100022E131E03183208325EC30E035872487D4
:1019200024EC30E03787268720EC30E0318B208BA9
:1019300021EC30E0338B228B22EC30E0358B248B92
:1019400026EC30E0378B268B118E128E138E148E80
:10195000E7E4F3E01382128284839583A683B7833E
:1019600084E291E091838083ACE5B3E087E48C93DB
:101970001296FC93EE93119714961C921E92139755
:1019800089E593E00E94610C86E593E00E94610C7A
:1019900083E593E00C94610CCF93DF93CDB7DEB772
:1019A000A1970FB6F894DEBF0FBECDBF789484B573
:1019B000826084BD84B5816084BD85B5826085BD4B
:1019C00085B5816085BD80916E00816080936E00D9
:1019D00010928100809181008260809381008091CB
:1019E000810081608093810080918000816080937C
:1019F00080008091B10084608093B1008091B0003C
:101A000081608093B00080917A00846080937A0036
:101A100080917A00826080937A0080917A00816060
:101A200080937A0080917A00806880937A00109287
:101A3000C100E091BA02F091BB0282E08083E091A4
:101A4000B602F091B7021082E091B802F091B902AB
:101A50008FEC80831092C202E091BE02F091BF022F
:101A600086E08083E091BC02F091BD0280818061BC
:101A70008083E091BC02F091BD0280818860808308
:101A8000E091BC02F091BD02808180688083E0918A
:101A9000BC02F091BD0280818F7D808380915F03C5
:101AA00090916003009711F00E94FB1486E090E093
:101AB0000E945F148C0180915D0390915E032091E0
:101AC0005C03F801208392838183138280E290E09B
:101AD000958384831093600300935F03109239020F
:101AE00010923802109287021092A9020E940C04F0
:101AF00084E991E09093AB018093AA0185E991E09C
:101B00009093AD018093AC0181E0F8018383C8011B
:101B10000E9459058823E1F060E880E00E942B07CD
:101B20006AE070E080E090E00E94620180E498E763
:101B3000ADE7B1E08093610390936203A0936303E8
:101B4000B093640360E070E08AE794E40E94530776
:101B500060E070E080E792E40E9453076BE070E081
:101B600089E593E00E9489036AE070E086E593E0EE
:101B70000E94890369E070E083E593E00E94890395
:101B8000609100017091010189E593E00E940D03CD
:101B900068EE73E080E090E00E94620160910201D3
:101BA0007091030183E593E00E940D0368EE73E0FA
:101BB00080E090E00E94620161E08CE00E940C01F4
:101BC00060E08DE00E940C0160E086E00E940C0164
:101BD00060E087E00E940C0160E088E00E940C0158
:101BE0000E9483064AE0842E912CA12CB12C8AEA13
:101BF00092E00E94F401181619060CF051C08AEA0E
:101C000092E00E94D20180932E02682F8AEA92E02D
:101C10000E94360282E391E00E941209E0912E02B6
:101C2000E254E33308F03CC00E2E000CFF0BE55EDF
:101C3000F14F0C9445145D0E500E500E190F4E0EC0
:101C40005A11500E500E500E500E600E500E500E87
:101C5000500E500E000F630EE010500E4111500E4A
:101C6000500E0B118710500E500E500E500E500E8D
:101C7000500E500E660E8C0EBE0E6D0E500E740E73
:101C8000500E500E770F500E500EA50E500E500EE7
:101C9000500E500E500EE70E500E320F0E94FB06F3
:101CA000E0E0F0E0EF2B09F4A2CF0E9400028823CD
:101CB00009F49DCF0E9400009ACF0E945306F0CFF6
:101CC0000E94AB06EDCF0E94D306EACF8CED95E0E3
:101CD0009093070180930601E3CFEEEEF2E0F093DC
:101CE0000701E0930601DCCF6091040170910501CA
:101CF00068377105A9F26F5F7F4F7093050160939C
:101D0000040186E593E00E940D036AE070E080E044
:101D100090E00E946201E8CF60910401709105019A
:101D20006832710509F4BCCF6150710970930501E7
:101D30006093040186E593E00E940D036AE070E081
:101D400080E090E00E946201E7CF60910201709113
:101D50000301643B710509F4A3CF6F5F7F4F70935C
:101D600003016093020183E593E00E940D036AE0A2
:101D700070E080E090E00E946201E7CF8091020174
:101D8000909103018A35910509F48ACF2CF00197CF
:101D900090930301809302018091020190910301CD
:101DA0008A3591052CF401969093030180930201EA
:101DB000609102017091030183E593E00E940D039D
:101DC0006AE070E080E090E00E946201D7CF60910D
:101DD0000201709103016A30710509F461CF61500D
:101DE0007109709303016093020183E593E00E94FF
:101DF0000D036AE070E080E090E00E946201E7CFAE
:101E000060910001709101016431710509F448CFBE
:101E100061507109709301016093000189E593E0BD
:101E20000E940D0365E070E080E090E00E94620196
:101E3000E7CF60910001709101016035710509F4EF
:101E40002FCF6F5F7F4F709301016093000189E591
:101E500093E00E940D0365E070E080E090E00E9456
:101E60006201E7CF00912C0210912D0289E593E0E9
:101E70000E94A3027801EE0CFF1CF701EC5FFD4FFE
:101E80009183808364E670E080E090E00E946201CC
:101E900086E593E00E94A302F701E452FE4F91838E
:101EA000808364E670E080E090E00E94620183E558
:101EB00093E00E94A302F701EC54FE4F91838083CC
:101EC00064E670E080E090E00E9462010F5F1F4FC7
:101ED00010932D0200932C021093B3010093B201D2
:101EE00068EC70E080E090E00E946201D9CE109230
:101EF0002D0210922C0281E090E09093B10180932A
:101F0000B00189E593E00E94A302909301018093C0
:101F1000000186E593E00E94A3029093050180935F
:101F2000040183E593E00E94A30290930301809350
:101F300002018091B0019091B101892B09F4B0CEDA
:101F400084EB682E81E0782E9CED492E91E0592E8D
:101F500024E0222E22E0322EF12CE12C8091B201DD
:101F60009091B301E816F90624F7F101019111915E
:101F70001F01809100019091010180179107D4F415
:101F8000C0900001D0900101C016D1066CF5B601D9
:101F900089E593E00E940D03FFEFCF1ADF0AD0928C
:101FA0000101C09200016AE070E080E090E00E94D0
:101FB0006201E6CFC0900001D09001010C151D0513
:101FC0009CF4B60189E593E00E940D0381E0C81AF4
:101FD000D108D0920101C09200016AE070E080E077
:101FE00090E00E946201E6CFF201019111912F0170
:101FF000809104019091050180179107D4F4C0905D
:102000000401D0900501C016D1066CF5B60186E535
:1020100093E00E940D03FFEFCF1ADF0AD092050173
:10202000C09204016AE070E080E090E00E946201EA
:10203000E6CFC0900401D09005010C151D059CF45D
:10204000B60186E593E00E940D0381E0C81AD1082D
:10205000D0920501C09204016AE070E080E090E057
:102060000E946201E6CFF301C190D1903F018091BF
:102070000201909103018C159D05CCF400910201A1
:10208000109103010C151D055CF5B80183E593E083
:102090000E940D030F5F1F4F109303010093020175
:1020A0006AE070E080E090E00E946201E7CF00917A
:1020B000020110910301C016D10694F4B80183E522
:1020C00093E00E940D030150110910930301009346
:1020D00002016AE070E080E090E00E946201E7CFD8
:1020E0008AEA92E00E94F4011816190664F48AEA5A
:1020F00092E00E94D2018437910529F41092B10137
:102100001092B00116CFFFEFEF1AFF0A27CF0E94FF
:1021100057097C0185E391E00E94120927010F2CE9
:10212000000C6608770877FE4EC06DE28AEA92E0FE
:102130000E94360222273327A901241935094609AE
:10214000570919A28E010F5D1F4FCA01B901A501E0
:1021500094010E94BD11605DF80162938F01211509
:1021600031054105510589F70115110519F0C8011F
:102170000E94120982E391E00E941209FEE1EF162B
:10218000F1040CF045C08FE0E816F10494F50E94CC
:10219000830664E670E080E090E00E9462010E94A5
:1021A00053066CE271E080E090E00E9462018AEAEE
:1021B00092E00E94D20180932E02833509F0A7CFCE
:1021C0000E9483066DCDA301920119A28E010F5DBD
:1021D0001F4FCA01B901A50194010E94BD11605DA4
:1021E000F80162938F01211531054105510589F7E9
:1021F000BBCF0E94830664E670E080E090E00E941E
:1022000062010E94D30664EF71E080E090E0CDCFE0
:102210000E94FB06CCCF86E00E94B500182F809369
:10222000AF0187E00E94B500082F8093AE0188E0DF
:102230000E94B5000130C9F411110DC0813091F434
:102240000E94D3068AEA92E00E94D20180932E0275
:10225000833509F7B5CF811105C0113019F40E94FB
:10226000AB06F0CF0E94FB06EDCF111105C0813007
:1022700039F30E948306E6CF8111FBCF1130C9F7F5
:10228000EECF0E9457098F3091055CF40E945306EF
:102290008AEA92E00E94D20180932E02833589F768
:1022A0008FCF4497449718F00E948306F1CF0E9485
:1022B000FB06EECF86E00E94B500182F8093AF0199
:1022C00087E00E94B500082F8093AE0188E00E944D
:1022D000B500013021F0113011F08130C9F40E94B5
:1022E000530664EF71E080E090E00E9462010E947A
:1022F000AB0664EF71E080E090E00E9462018AEA40
:1023000092E00E94D20180932E02833599F658CF35
:102310000E94FB06F4CF052E97FB1EF400940E944A
:10232000A21157FD07D00E94BD1107FC03D04EF447
:102330000C94A21150954095309521953F4F4F4FE9
:102340005F4F089590958095709561957F4F8F4F61
:102350009F4F08950E94DF11A59F900DB49F900D8F
:10236000A49F800D911D11240895B7FF0C94AA110C
:102370000E94AA11821B930B0895A1E21A2EAA1B98
:10238000BB1BFD010DC0AA1FBB1FEE1FFF1FA21725
:10239000B307E407F50720F0A21BB30BE40BF50B22
:1023A000661F771F881F991F1A9469F760957095AB
:1023B000809590959B01AC01BD01CF010895A29F2E
:1023C000B001B39FC001A39F700D811D1124911D09
:1023D000B29F700D811D1124911D08955058BB2787
:1023E000AA270E9406120C9479130E946B1338F0EE
:1023F0000E94721320F039F49F3F19F426F40C94D4
:1024000068130EF4E095E7FB0C946213E92F0E9429
:102410008A1358F3BA17620773078407950720F0E9
:1024200079F4A6F50C94AC130EF4E0950B2EBA2FAC
:10243000A02D0B01B90190010C01CA01A0011124CA
:10244000FF27591B99F0593F50F4503E68F11A1676
:10245000F040A22F232F342F4427585FF3CF469507
:1024600037952795A795F0405395C9F77EF41F1629
:10247000BA0B620B730B840BBAF09150A1F0FF0FF3
:10248000BB1F661F771F881FC2F70EC0BA0F621FDF
:10249000731F841F48F4879577956795B795F795CF
:1024A0009E3F08F0B0CF9395880F08F09927EE0F64
:1024B0009795879508950E943E1308F481E008954A
:1024C0000E9474120C9479130E94721358F00E94A7
:1024D0006B1340F029F45F3F29F00C946213511103
:1024E0000C94AD130C9468130E948A1368F399231B
:1024F000B1F3552391F3951B550BBB27AA27621700
:102500007307840738F09F5F5F4F220F331F441F0C
:10251000AA1FA9F335D00E2E3AF0E0E832D0915040
:102520005040E695001CCAF72BD0FE2F29D0660F2D
:10253000771F881FBB1F261737074807AB07B0E870
:1025400009F0BB0B802DBF01FF2793585F4F3AF076
:102550009E3F510578F00C9462130C94AD135F3FCD
:10256000E4F3983ED4F3869577956795B795F795FC
:102570009F5FC9F7880F911D9695879597F90895E4
:10258000E1E0660F771F881FBB1F62177307840780
:10259000BA0720F0621B730B840BBA0BEE1F88F78F
:1025A000E09508950E94921388F09F5798F0B92FF4
:1025B0009927B751B0F0E1F0660F771F881F991F78
:1025C0001AF0BA95C9F714C0B13091F00E94AC135B
:1025D000B1E008950C94AC13672F782F8827B85F6B
:1025E00039F0B93FCCF3869577956795B395D9F7D0
:1025F0003EF490958095709561957F4F8F4F9F4FDA
:102600000895E89409C097FB3EF4909580957095E5
:1026100061957F4F8F4F9F4F9923A9F0F92F96E92E
:10262000BB279395F695879577956795B795F111A3
:10263000F8CFFAF4BB0F11F460FF1BC06F5F7F4F40
:102640008F4F9F4F16C0882311F096E911C0772352
:1026500021F09EE8872F762F05C0662371F096E85B
:10266000862F70E060E02AF09A95660F771F881F2A
:10267000DAF7880F9695879597F90895990F0008CE
:10268000550FAA0BE0E8FEEF16161706E807F90744
:10269000C0F012161306E407F50798F0621B730BDF
:1026A000840B950B39F40A2661F0232B242B252B60
:1026B00021F408950A2609F4A140A6958FEF811D03
:1026C000811D089597F99F6780E870E060E00895A4
:1026D0009FEF80EC089500240A941616170618063A
:1026E0000906089500240A94121613061406050616
:1026F0000895092E0394000C11F4882352F0BB0FA7
:1027000040F4BF2B11F460FF04C06F5F7F4F8F4F09
:102710009F4F089557FD9058440F551F59F05F3F44
:1027200071F04795880F97FB991F61F09F3F79F0F3
:1027300087950895121613061406551FF2CF469575
:10274000F1DF08C0161617061806991FF1CF8695F7
:102750007105610508940895E894BB2766277727DB
:10276000CB0197F908950E943E1308F48FEF089566
:102770000E94CB130C9479130E946B1338F00E94C3
:10278000721320F0952311F00C9462130C946813CB
:1027900011240C94AD130E948A1370F3959FC1F31A
:1027A000950F50E0551F629FF001729FBB27F00DFF
:1027B000B11D639FAA27F00DB11DAA1F649F662754
:1027C000B00DA11D661F829F2227B00DA11D621FA3
:1027D000739FB00DA11D621F839FA00D611D221F5D
:1027E000749F3327A00D611D231F849F600D211D41
:1027F000822F762F6A2F11249F5750409AF0F1F0C4
:1028000088234AF0EE0FFF1FBB1F661F771F881F2C
:1028100091505040A9F79E3F510580F00C946213EF
:102820000C94AD135F3FE4F3983ED4F3869577950F
:102830006795B795F795E7959F5FC1F7FE2B880FD2
:10284000911D9695879597F90895991B79E004C095
:10285000991F961708F0961B881F7A95C9F78095DF
:10286000089597FB072E16F4009407D077FD09D042
:102870000E944B1407FC05D03EF4909581959F4F24
:102880000895709561957F4F0895EE0FFF1F059095
:10289000F491E02D0994AA1BBB1B51E107C0AA1FAC
:1028A000BB1FA617B70710F0A61BB70B881F991FF1
:1028B0005A95A9F780959095BC01CD0108950F9385
:1028C0001F93CF93DF938230910510F482E090E064
:1028D000E0916703F091680330E020E0B0E0A0E011
:1028E000309799F42115310509F44AC0281B390B9A
:1028F00024303105D8F58A819B816115710589F1F4
:10290000FB0193838283FE0111C0408151810281CA
:10291000138148175907E0F04817590799F41097A1
:1029200061F012960C93129713961C933296CF0176
:10293000DF91CF911F910F9108950093670310933A
:102940006803F4CF2115310551F04217530738F0D1
:10295000A901DB019A01BD01DF01F801C1CFEF013F
:10296000F9CF9093680380936703CDCFFE01E20F08
:10297000F31F819391932250310939832883D7CF54
:102980002091650330916603232B41F420910A01C5
:1029900030910B0130936603209365032091080169
:1029A000309109012115310541F42DB73EB7409111
:1029B0000C0150910D01241B350BE0916503F09142
:1029C0006603E217F307A0F42E1B3F0B2817390705
:1029D00078F0AC014E5F5F4F2417350748F04E0F7B
:1029E0005F1F5093660340936503819391939FCF3C
:1029F000F0E0E0E09CCFCF93DF930097E9F0FC019B
:102A0000329713821282A0916703B0916803ED019F
:102A100030E020E01097A1F420813181820F931FD4
:102A200020916503309166032817390709F061C0CA
:102A3000F0936603E0936503DF91CF910895EA0177
:102A4000CE17DF07E8F54A815B819E0141155105EC
:102A5000B1F7E901FB83EA8349915991C40FD51F6E
:102A6000EC17FD0761F4808191810296840F951F18
:102A7000E90199838883828193819B838A83F0E033
:102A8000E0E012968D919C9113970097B9F52D91E6
:102A90003C911197CD010296820F931F20916503FF
:102AA000309166032817390739F6309751F510929F
:102AB000680310926703B0936603A0936503BCCFCD
:102AC000D383C28340815181840F951FC817D907D2
:102AD00061F44E5F5F4F88819981480F591F518380
:102AE00040838A819B81938382832115310509F07C
:102AF000B0CFF0936803E09367039ECFFD01DC0144
:0C2B0000C0CF13821282D7CFF894FFCF11
:102B0C0050005A007800DC050000690380000000CA
:102B1C00000036029601C3018302F401D201E601E2
:102B2C0000000000E905BC0518069205B505A205D4
:102B3C0093050D0A0064697374616E63653D000052
:00000001FF
