:100000000C94CA000C94F2000C94F2000C94F200D0
:100010000C94F2000C94F2000C94F2000C94221355
:100020000C94F2000C94F2000C941D140C94901497
:100030000C94D6130C94F2000C94F2000C94F20081
:100040000C94D8120C94F2000C94A4130C947E130C
:100050000C94F2000C94F2000C94F2000C94F20058
:100060000C94F2000C94F20007634236B79BD8A7B9
:100070001A39685618AEBAAB558C1D3CB7CC5763CD
:10008000BD6DEDFD753EF6177231BF000000803F7B
:1000900008000000BE922449123EABAAAA2ABECD97
:1000A000CCCC4C3E00000080BEABAAAAAA3E000009
:1000B0000000BF000000803F000000000008417801
:1000C000D3BB4387D1133D190E3CC3BD4282AD2B38
:1000D0003E68EC8276BED98FE1A93E4C80EFFFBE30
:1000E00001C4FF7F3F0000000000CDCCCC3D0AD70B
:1000F000233C17B7D13877CC2B329595E6241FB126
:100100004F0A000020410000C84200401C4620BCAD
:10011000BE4CCA1B0E5AAEC59D74026465736572EF
:1001200069616C697A654A736F6E28292066616916
:100130006C65643A200000000000240027002A00BB
:100140000000000023002600290000000008000233
:10015000010000030407000000000000000001028D
:100160000408102040800102040810200102040845
:10017000102000000000250028002B0004040404C7
:100180000404040402020202020203030303030341
:100190005B15491D11241FBECFEFD8E0DEBFCDBFD8
:1001A00023E0AAEDB1E001C01D92A439B207E1F746
:1001B00011E0A0E0B1E0E8EDF7E402C005900D9297
:1001C000AA3DB107D9F710E0C9ECD0E004C02197EF
:1001D000FE010E94E021C83CD107C9F70E941B160E
:1001E0000C94DF230C940000CF93DF93EC01888103
:1001F0009981DC01ED91FC910190F081E02D64E2A8
:1002000070E00995009741F02FE1FC01238321E084
:100210002283DF91CF91089521E02A83FACF4F9274
:100220005F926F927F928F929F92AF92BF92FF9256
:1002300020915C0330915D038217930708F043C05F
:100240002B0166247724852E962EA72EBB24B82D4D
:10025000A42F20916203F42C222391F0E22FF0E0EE
:10026000E49DD001E59DB00DF49DB00D1124FB2E51
:10027000289D40011124B92D249F90011124A32F02
:10028000E09168032091630330916403509165030A
:10029000E51323C0FC01EE0FFF1F8E0F9F1F820F7F
:1002A000931FE0916503E80FF92FF11DF082E091B3
:1002B0006603E80FF92FF11DB08320916703820FC9
:1002C000911DFC01A083FF90BF90AF909F908F90F5
:1002D0007F906F905F904F900895880F991F880FBF
:1002E000991F820F931FE80FF92FF11D1082D9CFAC
:1002F000FF920F931F93CF93DF938C01F12C6091AA
:1003000085037091860380918703F816C8F484E012
:10031000F89EE0011124C60FD71F6A817B81611509
:10032000710541F0D801ED91FC910280F381E02D3F
:10033000C80109951B821A8218821982F394DFCFB3
:10034000109287038FEF80938903B3E065377B07B3
:1003500089F0D801ED91FC910280F381E02DC80174
:10036000099585E793E0909386038093850384E065
:1003700080938803DF91CF911F910F91FF90089593
:10038000833081F028F4813099F08230A9F008950B
:100390008730A9F08830C9F08430B1F480918000B2
:1003A0008F7D03C0809180008F77809380000895B7
:1003B00084B58F7784BD089584B58F7DFBCF809100
:1003C000B0008F778093B00008958091B0008F7D4A
:1003D000F9CFCF93DF93282F30E0F901E65BFE4F92
:1003E0008491F901E25AFE4FD491F901E458FE4F8D
:1003F000C491CC23A1F081110E94C001EC2FF0E048
:10040000EE0FFF1FE05CFE4FA591B491EC91ED2340
:1004100081E090E009F480E0DF91CF91089580E0E1
:1004200090E0FACF1F93CF93DF93282F30E0F901AC
:10043000E65BFE4F8491F901E25AFE4FD491F90137
:10044000E458FE4FC491CC23A9F0162F81110E94CD
:10045000C001EC2FF0E0EE0FFF1FEE58FE4FA5910C
:10046000B4918FB7F894EC91111108C0D095DE23A8
:10047000DC938FBFDF91CF911F910895DE2BF8CFD2
:10048000CF93DF9390E0FC01E25AFE4F2491845811
:100490009E4FFC0184918823D1F090E0880F991F32
:1004A000FC01EA5CFE4FA591B491FC01EE58FE4FB1
:1004B000C591D49161110EC09FB7F8948C91E22F31
:1004C000E0958E238C932881E223E8839FBFDF9100
:1004D000CF9108958FB7F894EC91E22BEC938FBFF6
:1004E000F6CF1F93CF93DF93182FEB0161E00E94AB
:1004F0004002209739F460E0812FDF91CF911F9166
:100500000C941202CF3FD10511F461E0F5CFE12F39
:10051000F0E0E65BFE4FE491E33031F140F4E1308E
:10052000B1F0E230E1F0C038D1057CF7E4CFE7303C
:1005300029F1E83059F1E430B1F780918000806210
:1005400080938000D0938B00C0938A0004C084B550
:10055000806884BDC7BDDF91CF911F91089584B598
:10056000806284BDC8BDF7CF809180008068809391
:100570008000D0938900C0938800EDCF8091B000B7
:1005800080688093B000C093B300E5CF8091B00045
:1005900080628093B000C093B400DDCF8E50806441
:1005A00080937C0080917A00806480937A008091AF
:1005B0007A0086FDFCCF80917800909179000895B3
:1005C0003FB7F8948091B9029091BA02A091BB0212
:1005D000B091BC0226B5A89B05C02F3F19F001962B
:1005E000A11DB11D3FBFBA2FA92F982F8827BC018D
:1005F000CD01620F711D811D911D42E0660F771FB5
:10060000881F991F4A95D1F708950F931F93CF9391
:10061000DF93CDB7DEB729970FB6F894DEBF0FBED4
:10062000CDBF8091630390916403892B09F47CC052
:100630000E94E0020091690310916A0320916B030C
:1006400030916C03601771078207930740F4609341
:10065000690370936A0380936B0390936C0300911A
:10066000690310916A0320916B0330916C03601B46
:10067000710B820B930B6C32714081059105C0F2B6
:10068000F89480915E0390915F039A838983E0914F
:100690006303F0916403DF01119680818987909153
:1006A0005A03E0916D03F0916E0380916F039923DB
:1006B00009F445C09081982B988790818095892373
:1006C0008F838F818C8388E08B8358856F814985E8
:1006D0003B812C8189819A81508347FD252F3A9552
:1006E0002083262F39F0441F00C0000060830000E3
:1006F00000C0F2CF38E04D9160830000019761F7B0
:10070000F0936E03E0936D0349873B832C839A83B8
:10071000898378940E94E0026093690370936A036E
:1007200080936B0390936C0329960FB6F894DEBF09
:100730000FBECDBFDF91CF911F910F910895908192
:10074000982B98879081809589238F838F818E83C2
:1007500088E08D8358856F8149853D812E8189810F
:100760009A81508347FD252F00C000C0208300C020
:1007700000C000C000C000C060830000262F3A9572
:1007800041F0441F000000C000C000C000C000C015
:10079000E8CF38E04D9100C0608300C0019709F7B1
:1007A000F0936E03E0936D0349873D832E83AFCFB3
:1007B0008F929F92AF92BF92CF92DF92EF92FF9271
:1007C0004B015C010E94E0026B017C010E94E0028F
:1007D0006C197D098E099F09683E7340810591055A
:1007E000A8F321E0821A9108A108B10888EEC80E8A
:1007F00083E0D81EE11CF11C81149104A104B10412
:1008000029F7FF90EF90DF90CF90BF90AF909F902F
:100810008F9008952FB7F8946091B5027091B60249
:100820008091B7029091B8022FBF08959091000176
:1008300089130BC0EAE1F1E0E4919FEF909300018E
:10084000E13049F028F0E23061F060E00C941202EF
:1008500010926E00FACF90916F009D7F90936F0081
:10086000F4CF909170009D7F9093700091E09093F1
:10087000B0009091B100987F94609093B100109275
:10088000B300E3CF4F925F926F927F928F929F92CD
:10089000AF92BF92CF92DF92EF92FF920F931F938E
:1008A000CF93DF9300D000D01F92CDB7DEB78B017E
:1008B00029013A01909100018917C9F09F3F09F47D
:1008C0007EC00F900F900F900F900F90DF91CF91FF
:1008D0001F910F91FF90EF90DF90CF90BF90AF905E
:1008E0009F908F907F906F905F904F900895EAE176
:1008F000F1E094919D8397FDE4CF61E00E94400276
:100900008D81882321F09D81923009F04AC14801F0
:10091000B12CA12C60E072E18AE790E0A50198017A
:100920000E94C12129833A834B835C8369017A0148
:1009300081E0C81AD108E108F1089FEFC916D10477
:10094000E104F10409F00CF401C160E472E48FE009
:1009500090E0A50198010E94C12169017A0181E01E
:10096000C81AD108E108F1089D81923009F0A2C0AF
:100970008FEFC816D104E104F10409F00CF4E6C1CC
:1009800060E970ED83E090E0A50198010E94C1212B
:1009900069017A0191E0C91AD108E108F1088FEFE5
:1009A000C816D104E104F10411F00CF07FC183E01A
:1009B0009091B100987F892B8093B100CFC0809334
:1009C0000001EAE1F1E094919D839F3F09F479CF22
:1009D000913041F150F0923009F446C09D8197FD6D
:1009E00070CF61E00E9440028ECF14BC15BC94B55C
:1009F000926094BD95B5916095BD282F30E0F901C6
:100A0000E458FE4FE491F0E0EE0FFF1FEE58FE4F6A
:100A100045915491F901E25AFE4FE491E093860228
:100A20001D826BCF10928000109281009091810006
:100A300098609093810090918100916090938100E3
:100A4000282F30E0F901E458FE4FE491F0E0EE0F7A
:100A5000FF1FEE58FE4F45915491F901E25AFE4FA7
:100A6000E491E093850249CF1092B0001092B1005A
:100A70009091B00092609093B0009091B10091601D
:100A80009093B100282F30E0F901E458FE4FE49133
:100A9000F0E0EE0FFF1FEE58FE4F4591549150933A
:100AA000900240938F02F901E25AFE4FE491E093E5
:100AB000910223CF9FEFC916D104E104F10409F09C
:100AC0000CF46DC068E478EE81E090E0A501980137
:100AD0000E94C12169017A0181E0C81AD108E108A8
:100AE000F1089D81992309F4FAC08FEFC816D1044B
:100AF000E104F10411F00CF0FBC0EFC064E274EF0C
:100B000080E090E0A50194010E94C12169017A0171
:100B100081E0C81AD108E108F10885E09FEFC91605
:100B2000D104E104F10409F008F442CF62E17AE76C
:100B300080E090E0A50194010E94C12169017A0141
:100B400081E0C81AD108E108F108E5C081E09D8183
:100B500091112ECF95B5987F892B85BD2FEF3FEF53
:100B6000A901411451046104710409F043C09D813D
:100B7000913009F45EC0923009F46DC09111A1CE9C
:100B8000C7BC20938B0230938C0240938D0250930C
:100B90008E0280916E00826080936E0092CE82E021
:100BA000D6CFB12CA12C60E072E18AE790E0A501DC
:100BB00098010E94C12169017A0181E0C81AD10817
:100BC000E108F108C114D10491E0E906F10404F54B
:100BD00091E08D81813011F680918100887F892B91
:100BE000809381002FEF3FEFA9014114510461046C
:100BF0007104F9F0D801AA0FBB1FA30192010E9452
:100C00009B1E28EE33E040E050E00E949F21AFCFD2
:100C100068E478EE81E090E0A50198010E94C1218E
:100C200069017A0181E0C81AD108E108F10893E06E
:100C3000D0CFD0928900C092880020938702309351
:100C400088024093890250938A0280916F008260EB
:100C500080936F0036CEC092B300209392023093FF
:100C600093024093940250939502809170008260A9
:100C70008093700026CE84E09FEFC916D104E10472
:100C8000F10409F008F466CFC980DA80EB80FC80BB
:100C90008AE0F594E794D794C7948A95D1F781E0D8
:100CA000C81AD108E108F10885E054CF68E478EE6D
:100CB00081E090E0A50198010E94C12169017A01BB
:100CC00081E0C81AD108E108F1089FEFC916D104E4
:100CD000E104F10411F00CF011CF84E069CE83E05F
:100CE0009FEFC916D104E104F10409F00CF432CFEE
:100CF00062E17AE780E090E0A50194010E94C121C1
:100D000069017A0181E0C81AD108E108F1089D81E2
:100D1000992309F4B0CF86E09FEFC916D104E1040E
:100D2000F10409F008F444CEC980DA80EB80FC803D
:100D30009AE0F594E794D794C7949A95D1F781E017
:100D4000C81AD108E108F10887E032CE82E030CE3F
:100D5000AF92BF92CF92DF92EF92FF920F931F93C9
:100D6000CF93DF936C017B018B01040F151FEB0107
:100D70005E01AE18BF08C017D10759F06991D601BE
:100D8000ED91FC910190F081E02DC6010995892B30
:100D900079F7C501DF91CF911F910F91FF90EF90EF
:100DA000DF90CF90BF90AF900895FC01538D448D9C
:100DB000252F30E0842F90E0821B930B541710F006
:100DC000CF96089501970895FC01918D828D981713
:100DD00061F0A28DAE0FBF2FB11D5D968C91928DEB
:100DE0009F5F9F73928F90E008958FEF9FEF08951C
:100DF0000F931F930E940A046093C5027093C6026A
:100E00008093C7029093C8028DEB92E00E94E406A3
:100E100097FF1DC00E940A040091C5021091C602EE
:100E20002091C7023091C802601B710B820B930B9B
:100E30000091C1021091C2022091C3023091C402FC
:100E40006017710782079307F8F28FEF9FEF1F91EA
:100E50000F910895FC01918D828D981731F0828D4C
:100E6000E80FF11D858D90E008958FEF9FEF0895B5
:100E7000FC01918D228D892F90E0805C9F4F821B19
:100E800091098F73992708958DEB92E00E9438079E
:100E900021E0892B09F420E0822F089580E090E082
:100EA000892B29F00E94440781110C9400000895B9
:100EB000FC01A48DA80FB92FB11DA35ABF4F2C91CF
:100EC000848D90E001968F739927848FA689B789C6
:100ED0002C93A089B1898C91837080648C93938DBD
:100EE000848D981306C00288F389E02D80818F7D60
:100EF00080830895EF92FF920F931F93CF93DF9318
:100F0000EC0181E0888F9B8D8C8D98131AC0E88945
:100F1000F989808185FF15C09FB7F894EE89FF8914
:100F20006083E889F98980818370806480839FBFB2
:100F300081E090E0DF91CF911F910F91FF90EF90B2
:100F40000895F62E0B8D10E00F5F1F4F0F731127C2
:100F5000E02E8C8D8E110CC00FB607FCFACFE889FD
:100F6000F989808185FFF5CFCE010E945807F1CF26
:100F7000EB8DEC0FFD2FF11DE35AFF4FF0829FB771
:100F8000F8940B8FEA89FB8980818062CFCFCF9361
:100F9000DF93EC01888D8823B9F0AA89BB89E889A1
:100FA000F9898C9185FD03C0808186FD0DC00FB647
:100FB00007FCF7CF8C9185FFF2CF808185FFEDCFC5
:100FC000CE010E945807E9CFDF91CF9108956F3F7E
:100FD000A9F0E62FE295EF7044E0E49F9001112420
:100FE000DC01ED91FC91E20FF31F6F708281938120
:100FF000B6E06B9F800D911D1124089590E080E074
:101000000895982F80336CF08A3324F08F3524F0C4
:101010008B3724F481E0089581341CF081E09B3506
:101020000CF080E00895FC018485811114C0A78133
:10103000B085818592852FEF3FEFA817B90730F46F
:10104000CD010196908787832C9130E037FD20E019
:10105000238781E08487838508951F93CF93DF934F
:10106000EC01162F0E941308811306C01C8681E034
:10107000DF91CF911F91089580E0FACF0F931F93D6
:10108000CF93DF938C01EB018991882369F0C8012C
:101090000E941308882379F0FE01319790819813FC
:1010A0000DC0F8011486F0CF90E080E0DF91CF9181
:1010B0001F910F91089582E090E0F8CF83E090E0D7
:1010C000F5CFCF93DF93EC01CE010E9413088B3054
:1010D0004CF489305CF4882359F081E08E8390E0F1
:1010E00080E00BC08D3011F08032B9F71C86ECCF58
:1010F0008E81811105C081E090E0DF91CF9108954C
:1011000082E090E0FACFDC0152969C915297915088
:1011100084E0989F900111245096ED91FC91E20F8C
:10112000F31F228133812115310579F041818081BE
:10113000481758F481E0840F818386E0489F200D92
:10114000311D11242115310521F460E070E08FEF8D
:101150000895B901892F8295807F840F089584E1D5
:101160000E94CE02BC01990F880B990B0E947E1D34
:1011700020E030E044E252E40E94DD1D20E030E057
:101180004BE753E40E94591F20E030E048E452E46A
:101190000E94ED1E20E030E048EC52E40E94012065
:1011A00018162CF481E080939B0280939602089598
:1011B0008BE00E94E901019729F481E080939B0272
:1011C0008093960208958091990290919A0261E02D
:1011D000181619060CF060E089E00C94120228EE53
:1011E00033E040E050E067E174E08DE00E944204AB
:1011F00064EF71E080E090E00E94D8038DE00C94F1
:101200001604CF92DF92EF92FF92CF93DF930E946A
:101210000A046B017C018091DC019091DD01A091B9
:10122000DE01B091DF01A7019601281B390B4A0BA3
:101230005B0BDA01C901883E9340A105B10528F195
:10124000C091DA01D091DB01FE01EE0FFF1FE75ED6
:10125000FE4F6081718161157105F1F028EE33E078
:1012600040E050E08DE00E9442042196C630D10556
:10127000B8F4D093DB01C093DA01C092DC01D092C4
:10128000DD01E092DE01F092DF01DF91CF91FF906E
:10129000EF90DF90CF9008958DE00E941604E5CF87
:1012A0001092DB011092DA01E8CF40E05FEF6FEFC0
:1012B00070E090E080E00E940F0140E05FEF6FEF90
:1012C00070E081E090E00E940F0140E05FEF6FEF7F
:1012D00070E082E090E00E940F0140E05FEF6FEF6E
:1012E00070E083E090E00E940F010C9405034FEF43
:1012F00050E060E070E090E080E00E940F014FEF6E
:1013000050E060E070E081E090E00E940F014FEF5C
:1013100050E060E070E082E090E00E940F014FEF4B
:1013200050E060E070E083E090E00E940F010C94D8
:1013300005034F925F926F927F928F929F92AF922E
:10134000BF92CF92DF92EF92FF920F931F93CF93B2
:10135000DF9300D000D01F92CDB7DEB7DC012C9117
:101360002B32E1F12D32D9F50196EE24E394FC0104
:10137000208130ED320F3A3010F02E3291F58C0191
:1013800060E070E0CB01F801219130ED832E820EF8
:1013900039E0381508F444C06A3949E9740784070C
:1013A00049E1940708F046C0AAE0B0E09B01AC0117
:1013B0000E949B1E912CB12CA12C2401350140943C
:1013C000509460947094461657066806790690F11A
:1013D000680D791D8A1D9B1D8F01D5CF0196E12CCB
:1013E000C6CF198229813A814B815C816D8170E081
:1013F00080E090E00F900F900F900F900F90DF9192
:10140000CF911F910F91FF90EF90DF90CF90BF9001
:10141000AF909F908F907F906F905F904F900895C6
:10142000211108C0EE2051F161307105810550E8AD
:101430009507A0F0F12CBAE08B2E912CA12CB12CA9
:101440006115710530E883079105F8F0A501940155
:101450000E949F21CA01B901F394F2CF22E02983AF
:101460009B01AC0188279927DC01821B930BA40BFD
:10147000B50B8A839B83AC83BD83B4CF23E02983E0
:101480006A837B838C839D83ADCFF801D8012D9136
:101490008D0130ED320F3A3010F4F394F6CF2E3246
:1014A00001F58F010F5F1F4FF8010F5F1F4F208164
:1014B000A0EDDA2ED20EB9E0BD1598F06C3CECEC44
:1014C0007E07ECE08E07910578F7AAE0B0E09B017B
:1014D000AC010E949B1E6D0D711D811D911DFA9422
:1014E000E3CF20812F7D10E000E0253409F050C0CB
:1014F00021812D32B1F53296CC24C394DF0110E066
:1015000000E02F2D0F2C000C330B5AE0B52EFD01FF
:10151000DD9040ED4D0D4A30B0F5B09EA001B19E7A
:10152000500D11240D2DDD0C110B00531109040F6A
:10153000151FA801420F531F4732510544F3CC2019
:10154000B9F080E090E0A0E0B0E8E11003C080E0F6
:1015500090E0DC0121E029838A839B83AC83BD83F7
:1015600041CF2B3219F03196C12CC8CF3296FCCF27
:1015700080E090E0A0E8BFEFE110ECCF80E090E0E9
:10158000A0E8BFE7E7CFCC2019F01195019511092C
:101590002081211126CF0F0D111DF7FC1A950E94F5
:1015A0007C1D32E0C32E31E0D32E101611063CF024
:1015B0001195019511094AEEC42E40E0D42EF12C6C
:1015C0000115110591F000FF0CC024E0F29EF0011E
:1015D0001124EC0DFD1D25913591459154910E94EA
:1015E000DD1D15950795F394EBCFE110905821E0A0
:1015F00029836A837B838C839D83F4CE1F93CF934F
:10160000DF93EC01CB011B81612F45960E94E70718
:10161000998388831A83009719F0FC0185818B8355
:10162000DF91CF911F910895CF92DF92EF92FF92B9
:101630000F931F93CF93DF937C016B018A01FC0111
:10164000C081D1814F3F510509F0B0F4E881F981A3
:101650000480F581E02D4B5F5F4FCE010995009727
:1016600059F0FC010383DF91CF911F910F91FF90FF
:10167000EF90DF90CF900895E881F9810280F381A7
:10168000E02DB601CE01099581E0F701828390E05B
:1016900080E0E9CF1F93CF93DF93EC01162F6A818F
:1016A0007B816115710589F04C815D81FB0183812E
:1016B0008417150651F4440F551F4F5F5F4F888103
:1016C00099810E94140B9B838A838A819B81009756
:1016D00059F02C813D81A9014F5F5F4F5D834C83A1
:1016E000820F931FFC011483DF91CF911F91089506
:1016F0009F92AF92BF92CF92DF92EF92FF920F93A1
:101700001F93CF93DF9300D000D01F92CDB7DEB7E9
:101710008C010E941308D82EF8011486F12CE12CBC
:1017200060EFC62EC8010E941308F8011486D8166F
:1017300009F4B3C0811113C082E090E00F900F90C4
:101740000F900F900F90DF91CF911F910F91FF900D
:10175000EF90DF90CF90BF90AF909F9008958C3521
:1017600009F099C0C8010E941308882329F3E3E413
:10177000F1E0853709F083C0F801148654E0952E16
:10178000B12CA12CC8010E9413088823A9F281342E
:1017900034F48053803130F083E090E0CFCF8F7D00
:1017A0008753F8CF44E0AA0CBB1C4A95E1F7A82A5E
:1017B000F80114869A949110E5CFC501985D8115C2
:1017C000944020F47501F3E0FF22ACCFC5019C5D8D
:1017D00081159440A8F483E0B822B701762F6627DC
:1017E000770F770F6A297B2990E080E001966038B7
:1017F00071058105910540F4C8010E944A0B92CF02
:10180000B50190E080E0F3CF1982262F2F73206876
:101810002A8326E096958795779567952A95D1F73F
:101820006032710580F4606C6B835E01E4E0AE0EA3
:10183000B11CF50162915F01662309F473CFC80101
:101840000E944A0BF6CF262F2F7320682B8386E049
:10185000769567958A95E1F76031710538F4606E89
:101860006C835E01F5E0AF0EB11CE3CF60686C8362
:10187000CD825E0126E0A20EB11CDBCF32969081B4
:10188000992309F489CF8913F9CF8181882309F439
:1018900083CFF8011486682FAFCF82819381892B83
:1018A00019F484E090E04ACF90E080E047CF6F9257
:1018B0007F928F929F92AF92BF92CF92DF92EF92E0
:1018C000FF920F931F93CF93DF93EC012A813B810B
:1018D0002C5F3F4F4C815D814430510588F5890173
:1018E000F90180E0942FB22FAE2FA21BA91730F47C
:1018F000F190A1E0F110A0E08A2BF6CF811120C079
:1019000082E0EB018C83FB01802F8B1B891728F46D
:10191000E80189918E018193F7CF640F751FFB0158
:101920001082DF91CF911F910F91FF90EF90DF9088
:10193000CF90BF90AF909F908F907F906F900895C1
:101940008B01F901E40FF51F1082888199814C8188
:101950005D81DC011396ED91FC913A01E89477F8F2
:101960006901C60CD71C3097C1F0A381A6151704D6
:1019700081F449017F01B4E0EB0EF11C8C149D044D
:1019800029F1D401AD904D01D701BD907D01AB147B
:10199000A9F30190F081E02DE6CF6A817B810E945E
:1019A000140BFC01A881B98113968D919C91149719
:1019B000918380831496FC93EE9313971B821A8273
:1019C00085E0E8018C83F983E883ABCF82818F5F68
:1019D0008283F6CFDB01ED91FC9111970280F381B8
:1019E000E02DBC01CD010994AF92BF92CF92DF925E
:1019F000EF92FF920F931F93CF93DF93EC018B0134
:101A00008C8180FF24C0A881B981FB0183819481EE
:101A100030E020E00097D9F0A817B907D1F5F80118
:101A20006081718112968C911297815012968C93DD
:101A3000129781110CC08D919C9111972115310540
:101A400029F1F90191838083CD010E94EA0C8C81F8
:101A5000807631F1209721F1F8805801F5E1AF0E41
:101A6000B11C8FEFF816D1F06F2DC5010E94E7076A
:101A70006C01FC01E580B8010E94F40CF801818D35
:101A8000F6018083F801F18EFE2CEBCF94838383E3
:101A9000DBCF9C01FC0180819181BCCFF882F9826F
:101AA0001C82DF91CF911F910F91FF90EF90DF90FB
:101AB000CF90BF90AF900895CB010C948222CB01C0
:101AC0000C94E621EAE5F3E04481558170E060E0A2
:101AD000818592850E94D1230C940503CF93DF93D7
:101AE00061E084E00E94120260E087E00E9412023E
:101AF000C0910501D0910601BE0185E00E947102EE
:101B0000BE0186E00E94710284E090E090939A0208
:101B10008093990280919D0290919E02019721F4F9
:101B2000DF91CF910C945509DF91CF910C94620D08
:101B3000CF93DF9360E084E00E94120261E087E0CF
:101B40000E941202C0910501D0910601BE0185E0FC
:101B50000E947102BE0186E00E94710283E090E063
:101B600090939A028093990280919D0290919E0297
:101B7000019761F40E9477098091AB029091AC02C9
:101B8000039739F4DF91CF910C9401090E94620D03
:101B9000F3CFDF91CF910895CF93DF9361E084E09D
:101BA0000E94120261E087E00E941202C0910301CC
:101BB000D0910401BE0185E00E947102BE0186E061
:101BC0000E94710281E090E090939A0280939902C2
:101BD00080919D0290919E02019721F540E050E096
:101BE0006FEF70E090E080E00E940F0140E050E075
:101BF0006FEF70E081E090E00E940F0140E050E064
:101C00006FEF70E082E090E00E940F0140E050E052
:101C10006FEF70E083E090E00E940F01DF91CF91C1
:101C20000C940503DF91CF910C94620D60E084E089
:101C30000E94120260E087E00E94120270E060E001
:101C400085E00E94710270E060E086E00E9471020F
:101C500010929A02109299020C94620D0F931F93A6
:101C60008091E40181110FC00E94CC0D81E080932E
:101C7000E4010E940A046093E0017093E101809303
:101C8000E2019093E3018091E4018823C9F00E946E
:101C90000A040091E0011091E1012091E2013091EC
:101CA000E301601B710B820B930B683B7B4081054A
:101CB000910530F00E94160E1092E40110929B02E2
:101CC0001F910F91089580919602882331F00E9410
:101CD000CC0D81E08093E40108950E94160E1092CD
:101CE000E40110929B020895FC0101900020E9F7A5
:101CF0003197AF01481B590BBC018DEB92E00C945E
:101D0000A8068F929F92AF92BF920F931F93CF938B
:101D1000DF93CDB7DEB7A1970FB6F894DEBF0FBE45
:101D2000CDBF19A2423008F44AE08E010F5D1F4F6B
:101D3000842E912CB12CA12CA50194010E949F21ED
:101D4000E62FB901CA01EA30F4F4E05DD801EE9360
:101D50008D01232B242B252B79F790E080E0109721
:101D600019F0CD010E94740EA1960FB6F894DEBF53
:101D70000FBECDBFDF91CF911F910F91BF90AF905C
:101D80009F908F900895E95CE1CFCF92DF92EF9220
:101D9000FF92CF93DF936B017C016DE28DEB92E0BC
:101DA0000E947A07EC0166277727CB016C197D0921
:101DB0008E099F094AE00E94810E8C0F9D1FDF91C2
:101DC000CF91FF90EF90DF90CF900895CF93DF9366
:101DD000BC01990F880B990B97FF0CC00E94C50E90
:101DE000EC0186E591E00E94740E8C0F9D1FDF913F
:101DF000CF9108954AE00E94810EF2CFCF93DF93F6
:101E0000D0E0C0E0009719F00E94740EEC0186E566
:101E100091E00E94740E8C0F9D1FDF91CF91089569
:101E20009F92AF92BF92CF92DF92EF92FF920F9369
:101E30001F93CF93DF9300D000D0CDB7DEB78A01D8
:101E4000452BA1F460E070E08FEF9A2D0F900F907A
:101E50000F900F90DF91CF911F910F91FF90EF9016
:101E6000DF90CF90BF90AF909F9008957901B72EEB
:101E7000C62EFC01D0806D2DC90145960E94E70752
:101E80002FEF009711F0FC0125819A838983DB8273
:101E90002C83DD24D39499249394A981BA8110973B
:101EA00089F2DD2051F114968C911497843069F0F9
:101EB000853051F1823079F5FD0101900020E9F77C
:101EC0003197CF018A1B9B0B07C00D90BC91A02DB1
:101ED00090E080E0109781F79F772C2D3B2D3F7786
:101EE0002817390751F4F801800F911FE817F907F7
:101EF000B9F031912D913217C9F3D924B701CE0130
:101F000001960E94FE0AC9CFED91FC91DF01149663
:101F1000838190E0E2CF90E080E0B0E0A0E0DDCF10
:101F200069817A818B81AC8090CF0F931F93CF937F
:101F3000DF93EC0188819981009759F02A813B81D8
:101F40002617370730F081E0DF91CF911F910F9175
:101F500008958B016F5F7F4F0E940B23009759F00C
:101F6000998388831B830A832C813D81232B59F716
:101F7000FC011082E8CF80E0E7CFCB01BA010C94DE
:101F80000B23CF92DF92EF92FF9282E10E94CE026A
:101F9000BC01990F880B990B0E947E1D20E030EC4C
:101FA0004FE754E40E94591F20E030E040EA50E43B
:101FB0000E94DD1D6B017C01AC019B0160E070E0C3
:101FC00080EA90E40E94EC1EA70196010E94591F2E
:101FD00020E030E040EA50E40E94DD1D20E030E0E7
:101FE0004AE754E40E94DD1D2AE037ED43EB5FEB46
:101FF0000E94062023E136E04FE35BE40E94DD1DF2
:1020000020E030E04AE753E40E940120181654F41F
:1020100081E080939B0280939602FF90EF90DF9087
:10202000CF90089510929602F8CFBF92CF92DF9290
:10203000EF92FF920F931F93CF93DF93EC01198DD3
:102040001F3F81F0612F45960E94E707FC018081C8
:10205000898F309709F477C014828FEF8583BF0191
:10206000812F76C06C0135E0C30ED11CE880F98069
:102070008F89882341F0C6010E948308E62FF72F3D
:10208000182F309749F71F89988D191324C01031E4
:1020900009F459C0110F6D897E89D701ED91FC912A
:1020A000B4E01B9FA0011124C616D70609F044C056
:1020B0000190F081E02DBA01C7010995009709F45C
:1020C00042C020E1F601DC0101900D922A95E1F772
:1020D0009E8B8D8B188F0D891E898F8921E0280F8B
:1020E0002F8BE4E08E9FC0011124080F191F90E18F
:1020F000B92E203111F48FE0B82EF6E0BF9EB0016A
:102100001124D701ED91FC910190F081E02DC701E0
:102110000995F80193838283892B09F4B12CD801A6
:10212000BC9211961C92012B71F0C6010E9483088B
:10213000E62FF72F182F8DCF0480F581E02DC701F2
:102140000995009729F681E08A8360E070E08FEFBF
:10215000DF91CF911F910F91FF90EF90DF90CF9083
:10216000BF9008954F925F926F927F928F929F924D
:10217000AF92BF92CF92DF92EF92FF920F931F9395
:10218000CF93DF9300D000D01F92CDB7DEB78C0184
:102190006B01742E0E9461087C01892B09F048C0F4
:1021A000C8010E941308863609F4ABC124F58732B2
:1021B00029F08B3561F1823209F0AAC1D801159658
:1021C0001C921E92149712968D919C911397892BB5
:1021D00039F48D919C910E94F400F80193838283DD
:1021E000C8010E94780B7C01892B11F5B601C8014A
:1021F0000E94570C1DC0843709F475C18B3709F450
:102200007CC08E3609F084C164E671E075C180E45B
:10221000D60114968C931497C114D10421F08FEF3A
:102220008C9311968C9371101AC025E0E22EF12C3C
:10223000C7010F900F900F900F900F90DF91CF91EB
:102240001F910F91FF90EF90DF90CF90BF90AF90D4
:102250009F908F907F906F905F904F900895F801BE
:102260001486C8010E946108009709F048C16DE515
:10227000C8010E942D088111DBCF7A94D8011D96E8
:102280008D909C90C4010E941510682E5B01672BF5
:1022900021F494E0E92EF12CCBCFF60161816F3F60
:1022A00039F1C40145960E94E707DC0115966C924E
:1022B000F6016182472DB501C8010E94B210009756
:1022C00009F01DC1C8010E946108009709F017C1FB
:1022D0006DE5C8010E942D088111AACF6CE2C801EA
:1022E0000E942D088111CACF83E0E82EF12CA0CFE7
:1022F000D6018C9311968C93DDCF80E2F601848316
:10230000C114D10419F08FEF80838183772009F401
:102310008CCFD8011C961C92C8010E9461080097BE
:1023200009F0EDC06DE7C8010E942D08811180CF32
:102330007A94F8011582148282819381892B49F461
:10234000808191810E94F400D80113969C938E9312
:102350001297C8010E941308873201F18232F1F00E
:10236000C8010E941308F82E0E940108882309F46E
:10237000BBCFF80114866F2DC8010E944A0BC8011B
:102380000E941308F82E0E9401088111F2CFD80193
:1023900012968D919C91892B41F47BCFC8010E94AC
:1023A000780B7C01892B09F043CFC8010E9461089A
:1023B0007C01892B09F03CCF6AE3C8010E942D08FB
:1023C000882309F491CFD8011296ED91FC911397CF
:1023D00014968D919C911597E80FF91F148214960D
:1023E0006D917C9115977F771D96ED90FC901E97CF
:1023F00012968D919C910496272F2F77B62DB07849
:102400006B2E622AE89467F89701AC01762DC6011D
:102410000E94100F69837A838B839C83672B51F012
:10242000B701CE0101960E94FE0AE980FA80E1140C
:10243000F10471F5F80185849684C4010E94151099
:10244000482E5B01672B09F424CFC4010E941510AC
:10245000582E962FE92EF72EE114F10409F419CF26
:10246000D50115965C92F60161816F3F71F0C40150
:1024700045960E94E707DC0115964C92F6015182C1
:10248000B501C8010E94570C09C040825182F8CFA3
:10249000F80165857685C7010E94F40C472DB701C8
:1024A000C8010E94B2107C01892B09F0C1CEC8017D
:1024B0000E9461087C01892B09F0BACE6DE7C80142
:1024C0000E942D088111B4CE6CE2C8010E942D0833
:1024D000882309F409CFC8010E9461087C01892B77
:1024E00009F427CFA5CE86E0D60114968C931497D5
:1024F00081E08C9369E571E0C8010E943E087C018F
:1025000097CE86E0F601848310826EE571E0F4CF09
:10251000C8010E9413084801FFE08F0E911CB12CE6
:10252000782CA92C803384F08A3384F43FE3B316EB
:10253000A9F0D8011C961C92B394F40181934F0129
:10254000C8010E941308EECF8B3281F393ED980FF0
:10255000923060F3982F9F7D953441F30B0D111D40
:10256000D8011F961C92872D9A2D0E9499093A83B3
:102570004B835C836D838A819B81AC81BD812230DA
:10258000A9F0233059F0213009F0AECE2EE0F6014B
:10259000248380839183A283B3834ACE2AE0F60109
:1025A000248380839183A283B38342CE2CE0F7CF30
:1025B0001F920F920FB60F9211242F933F938F9378
:1025C0009F93AF93BF938091B5029091B602A09173
:1025D000B702B091B8023091B40223E0230F2D3737
:1025E00058F50196A11DB11D2093B4028093B50248
:1025F0009093B602A093B702B093B8028091B9024B
:102600009091BA02A091BB02B091BC020196A11DAB
:10261000B11D8093B9029093BA02A093BB02B0930C
:10262000BC02BF91AF919F918F913F912F910F90DD
:102630000FBE0F901F90189526E8230F0296A11D3C
:10264000B11DD2CF1F920F920FB60F9211242F936C
:102650003F934F935F936F937F938F939F93AF932A
:10266000BF93EF93FF938091920290919302A09178
:102670009402B0919502892B8A2B8B2BD1F19091EA
:102680009102E0918F02F0919002808189278083EE
:102690008091920290919302A0919402B091950240
:1026A000181619061A061B069CF480919202909146
:1026B0009302A0919402B09195020197A109B109EA
:1026C0008093920290939302A0939402B093950208
:1026D000FF91EF91BF91AF919F918F917F916F91FA
:1026E0005F914F913F912F910F900FBE0F901F90D0
:1026F0001895809100010E941604EACF1F920F9254
:102700000FB60F9211242F933F934F935F936F93C4
:102710007F938F939F93AF93BF93EF93FF938DEB33
:1027200092E00E945807FF91EF91BF91AF919F9166
:102730008F917F916F915F914F913F912F910F906A
:102740000FBE0F901F9018951F920F920FB60F9209
:1027500011242F938F939F93EF93FF93E091CD02DA
:10276000F091CE028081E091D302F091D40282FDFB
:102770001BC090818091D6028F5F8F732091D7020A
:10278000821741F0E091D602F0E0E354FD4F958FBF
:102790008093D602FF91EF919F918F912F910F908F
:1027A0000FBE0F901F9018958081F4CF1F920F924B
:1027B0000FB60F9211242F938F939F93EF93FF9354
:1027C00080916F008B7F80936F00809181008F7B61
:1027D00080938100809184022091830220589091FF
:1027E0008202893020F49695922B8F5FFACF9093D6
:1027F0008202809181028F5F803508F080E0209115
:102800008002281739F0E82FF0E0E05DFD4F90835B
:102810008093810210928402809181008F7B80934B
:10282000810010928302FF91EF919F918F912F91E0
:102830000F900FBE0F901F9018951F920F920FB61A
:102840000F9211242F933F934F938F939F93EF9366
:10285000FF93209186003091870040918302809100
:102860008100442349F18F7B809381001092830281
:1028700090918402911127C0411112C030938B00B6
:1028800020938A0084E086BB80916F0084608093EF
:102890006F0030932F0220932E0281E080938402F8
:1028A000FF91EF919F918F914F913F912F910F90B9
:1028B0000FBE0F901F90189580648093810080E870
:1028C00080938302D5CF80918202209183028695E6
:1028D000822B9F5F9930D8F38093820280916F00A2
:1028E0008B7F80936F00809181028F5F803508F02D
:1028F00080E090918002981749F0E82FF0E09091E5
:102900008202E05DFD4F908380938102809181007F
:102910008F7B809381001092830210928402C0CF3B
:102920001F920F920FB60F9211242F933F934F9344
:102930005F938F939F93EF93FF9380912D0220914C
:102940002C02409188005091890090912B028A308E
:10295000F0F4322F3170893009F431E026958F5F21
:102960009317A9F390918000332371F0906C9093AA
:102970008000509389004093880030932B0220936D
:102980002C0280932D0212C09F7B9068F0CF909113
:102990002A02E09129029E1323C08A30A1F48BE021
:1029A00080932D025093890040938800FF91EF910E
:1029B0009F918F915F914F913F912F910F900FBEFB
:1029C0000F901F90189510922D02809180008F73A8
:1029D0008093800080916F008D7F80936F00E6CFA1
:1029E000EF5FE43408F0E0E0E0932902F0E0EB511F
:1029F000FE4F908190932C0210922B0290918000B8
:102A00009F7B9068909380008A3031F450938900C6
:102A10004093880081E0B5CF80918400909185003B
:102A200040969093890080938800F4CFCF92DF92F4
:102A3000EF92FF920F931F93E82FF92F05C00150DB
:102A400011092109310961F1908196239417B9F395
:102A500005C0015011092109310911F19081962316
:102A60009413F7CFC12CD12CE12CF12C0AC08FEF9D
:102A7000C81AD80AE80AF80A0C151D052E053F05E4
:102A800079F080818623841791F36C2D7D2D8E2D16
:102A90009F2D1F910F91FF90EF90DF90CF900895A1
:102AA00060E070E080E090E01F910F91FF90EF9068
:102AB000DF90CF9008951092C0021092BF0288EE6E
:102AC00093E0A0E0B0E08093C1029093C202A09393
:102AD000C302B093C40285E391E09093BE02809359
:102AE000BD0285EC90E09093CA028093C90284EC09
:102AF00090E09093CC028093CB0280EC90E0909396
:102B0000CE028093CD0281EC90E09093D00280932E
:102B1000CF0282EC90E09093D2028093D10286ECB7
:102B200090E09093D4028093D3021092D602109238
:102B3000D7021092D8021092D90287E091E09093C8
:102B400071038093700310927203109274031092B9
:102B5000730385E793E09093860380938503109237
:102B6000870384E0809388038FEF8093890310921A
:102B70008E0380938F0310925B0310926203109276
:102B8000690310926A0310926B0310926C03109207
:102B900068031092650381E08093660392E090934E
:102BA000670380935A038CE090E090935F038093D7
:102BB0005E030E94E6219093640380936303009771
:102BC00089F12CE0FC0111922A95E9F784E090E06C
:102BD00090935D0380935C038CE090E0909361039D
:102BE0008093600380915B03882341F061E08CE077
:102BF0000E94400260E08CE00E941202E8E8F1E0EE
:102C0000E491F0E0EE0FFF1FEE58FE4F8591949196
:102C100090936E0380936D03EAE6F1E0E491E09314
:102C20006F03089510925F0310925E0310925D038C
:102C300010925C03D1CFCF93DF93CDB7DEB7C955E8
:102C4000D1090FB6F894DEBF0FBECDBF789484B51E
:102C5000826084BD84B5816084BD85B5826085BD98
:102C600085B5816085BD80916E00816080936E0026
:102C70001092810080918100826080938100809118
:102C800081008160809381008091800081608093C9
:102C900080008091B10084608093B1008091B00089
:102CA00081608093B00080917A00846080937A0084
:102CB00080917A00826080937A0080917A008160AE
:102CC00080937A0080917A00806880937A001092D5
:102CD000C100809160039091610397FDEAC061E0BB
:102CE0000E94400260E0809160030E94120281E035
:102CF00080935B0360E080E10E94400260E081E13C
:102D00000E94400260E08FE00E94400261E084E0A7
:102D10000E94400261E087E00E94400261E089E099
:102D20000E94400261E089E00E94120264EF71E0BB
:102D300080E090E00E94D80360E089E00E941202E7
:102D400060E08BE00E94400261E08EE00E94400261
:102D5000E091CD02F091CE0282E08083E091C90241
:102D6000F091CA021082E091CB02F091CC028FEC7C
:102D700080831092D502E091D102F091D20286E0D8
:102D80008083E091CF02F091D002808180618083C6
:102D9000E091CF02F091D002808188608083E09141
:102DA000CF02F091D002808180688083E091CF02D1
:102DB000F091D00280818F7D808388EE93E0A0E047
:102DC000B0E08093C1029093C202A093C302B0937B
:102DD000C40289E691E00E94FE0EF0E72F2EF3E098
:102DE0003F2E72E3E72EF12C88248394912C80915E
:102DF000B3028111F0C08DEB92E00E9438071816E3
:102E000019060CF0E8C062961FAE1EAE629764967B
:102E10001FAE1EAE649766961FAE1EAE669770E03C
:102E200060E0CE01805B9F4F0E94950F62962EADB1
:102E30003FAD6297811140C02115310519F0C901DC
:102E40000E94822262961FAE1EAE629766961FAEE9
:102E50001EAE669764961FAE1EAE64970E94F8067B
:102E600097FD34C08A30910589F189831A8266966C
:102E70000EAD1FAD66970F5F1F4FB801CE01805B8F
:102E80009F4F0E94950F882349F362962EAD3FAD68
:102E9000629766968EAD9FAD6697BE016F5F7F4F5E
:102EA000820F931F0E94D82366961FAF0EAF6697BE
:102EB000D5CF10925B031ECF66961FAE1EAE6697EF
:102EC00065E571E0C9010E94D823C8CF8DEB92E07F
:102ED0000E94380718161906CCF36696CEACDFAC04
:102EE000669762960EAD1FAD6297809170039091C8
:102EF00071030E94780110927203A0907003B09049
:102F000071038091730390917403009759F0FC0151
:102F1000208131813093740320937303B5010E94A3
:102F2000EA0CEFCF10928E033A8229821C821B8218
:102F30001E821D821F82198708870C0D1D1D1B878D
:102F40000A871D863F862E864AE06AE873E0CE0136
:102F500001960E94B2108C01892B49F48C8588233C
:102F600031F080918E0383FF02C003E010E08B817B
:102F70009C81009731F0E981FA81608171810E9422
:102F8000EA0C1093B2020093B1020115110509F485
:102F900051C06BE1C62E61E0D62EF6016491662326
:102FA00049F08DEB92E00E947A07FFEFCF1ADF0A1B
:102FB000892B99F7000F111FF801EB5DFE4F8081FF
:102FC00091810E94FE0E62968EAD9FAD6297009732
:102FD00011F00E94822280919C02882309F438C358
:102FE0008DEB92E00E943807181619060CF0C8C144
:102FF0008DEB92E00E94E406ECEBE80FE23108F082
:10300000BFC10E2E000CFF0BE85FF74E0C94E021C1
:10301000E919C31A721AC019C019C019C019C01908
:103020002C1AC019C019C019EB1A9B1A2F1A321A80
:10303000371ABE1981EA92E06A969FAF8EAF6A97FF
:1030400068969FAF8EAF689710E000E068018091AE
:103050008E03803219F070E060E069C03FE6432ED5
:1030600031E0532E44E0642EF72DF0787F2E6894E3
:1030700077F820E733E0B301A2018AE893E00E94E9
:10308000100F69837A838B839C83672B21F360E71E
:1030900073E0CE0101960E94FE0AE981FA81309721
:1030A000D1F284818034B9F6B0806B2D85E893E04D
:1030B0000E94E7072FEF009711F0FC0125819A830A
:1030C0008983BB822C8389819A81892B69F0C11401
:1030D000D10451F060E773E0CE0101960E94FE0A30
:1030E000F1E0CF1AD108EFCF49815A816B817C8101
:1030F000DA01109709F4AFCF1496EC911497E250CF
:10310000ED3008F0A8CFF0E0E857F74E0C94E0213E
:10311000FC182B18FA18101995182B182B182B18A7
:10312000DB182B18E9182B1815196C9170E06896AC
:10313000EEADFFAD6897619371936896FFAFEEAF08
:1031400068970530110509F0A1C07093A002609343
:103150009F0240915E0350915F0370E060E08091B8
:103160006303909164030E94D123609162036D30E8
:1031700009F49BC02091630330916403615009F40A
:103180008EC070E08FEF9CE00E948B21F90140918E
:103190005E0350915F03CF01821B930B8417950749
:1031A00008F080C04081469FC001479F900D1124C8
:1031B00090833196ECCF8D919D910D90BC91A02D77
:1031C000811520E89207A105B10508F044CFBC01A4
:1031D000AECF8D919D910D90BC91A02DAC01BD0104
:1031E00050586F4F7F4F411551056140710508F0F0
:1031F00032CFEDCF4D915C91CA010E94990929838C
:103200003A834B835C836D83AA80BB80CC80DD8056
:10321000223049F1233099F1213009F01CCF09C047
:103220004D915C914C5F5F4FE7CFAD90BD90CD90DD
:10323000DC9020E030E040E057ECC601B5010E9490
:10324000012087FD08CF20E03EEF4FEF56E4C60196
:10325000B5010E94771D18160CF4FDCEC601B5010C
:103260000E94CB1F64CFD601C5019058AF4FBF4F0E
:103270000097A140B10508F0EECEB50158CFA114DA
:1032800020E8B206C104D104C0F3E5CE0630110532
:1032900009F05FCF70939E0260939D025ACF70E059
:1032A00060E074CFFDE0F09362030F5F1F4F0830C2
:1032B000110509F0CBCEA12CB12C650184E791E07A
:1032C0000E94740E4AE0C601B5010E94810E8FE78C
:1032D00091E00E94740E6A96EEADFFAD6A978191FF
:1032E00091916A96FFAFEEAF6A970E94E60EFFEFEC
:1032F000AF1ABF0ACF0ADF0A28E0A216B104C10440
:10330000D104E1F611E01093B30228EE33E040E07F
:1033100050E06AEB72E08DE00E94420464EF71E0DD
:1033200080E090E00E94D8038DE00E94160468EED1
:1033300073E080E090E00E94D80310939C022091FB
:10334000A1023091A2024091A3025091A40285E013
:1033500090E0121613061CF04130510561F41092F2
:103360009C0282E891E00E94740E80919C0290E0A1
:103370000E94E60E28CE019761F7F3CF0E94CC0D94
:103380000091A3021091A4020130110541F0809137
:10339000A1029091A202181619060CF0C3C2A090C7
:1033A000A702B090A802C090A902D090AA02809172
:1033B000A5029091A602019709F496C1AA94AB28A0
:1033C00009F497C1CA94CD2809F068C20E94D808B0
:1033D00096C160E084E00E94120260E087E00E94F3
:1033E00012020091010110910201B80185E00E94D2
:1033F0007102B80186E00E94710282E090E0909331
:103400009A028093990280919D0290919E02019769
:1034100059F540E05FEF60E070E090E080E00E94EE
:103420000F0140E05FEF60E070E081E090E00E941B
:103430000F0140E05FEF60E070E082E090E00E940A
:103440000F0140E05FEF60E070E083E090E00E94F9
:103450000F010E94050394CF0E94980D91CF0E9406
:103460006E0D8ECF0E94160E0E94620D89CF40E035
:1034700050E06FEF70E090E080E00E940F0140E0CC
:1034800050E06FEF70E081E090E00E940F0140E0BB
:1034900050E06FEF70E082E090E00E940F0140E0AA
:1034A00050E06FEF70E083E090E00E940F010E9417
:1034B000050328EE33E040E050E067E174E08DE082
:1034C0000E94420464EF71E080E090E00E94D80323
:1034D0008DE00E94160460ED77E080E090E00E94AD
:1034E000D803C2CF40E05FEF60E070E090E080E0A2
:1034F0000E940F0140E05FEF60E070E081E090E04B
:103500000E940F0140E05FEF60E070E082E090E039
:103510000E940F0140E05FEF60E070E083E090E028
:103520000E940F010E94050328EE33E040E050E0C6
:103530006AEB72E0C4CF61E084E00E94120261E0B5
:1035400087E00E9412020091030110910401B8016A
:1035500017FF02C06F5F7F4F7595679585E00E94EA
:103560007102B80186E00E94710290929A028092E4
:10357000990280919D0290919E02019709F074CF6B
:103580000E945509FDCE61E084E00E94120261E0D4
:1035900087E00E9412020091030110910401B8011A
:1035A00085E00E947102B80177FF02C06F5F7F4F14
:1035B0007595679586E00E94710290929A028092BA
:1035C000990280919D0290919E02019709F04CCF43
:1035D0000E947709D5CE0E94160E1092B302109267
:1035E0009C0210929B020E94620D0E94EF080E94B2
:1035F000E3080E94AF080E94C10F1092A20210922D
:10360000A1021092A4021092A3021092A60210929C
:10361000A5021092A8021092A7021092AA0210927C
:10362000A9021092AC021092AB021092AE0210925C
:10363000AD021092B0021092AF0268EE73E080E02B
:1036400090E00E94D80380E991E00E94FE0E98CE9F
:103650008DEB92E00E943807181619060CF090CEF8
:103660008DEB92E00E94E406803509F089CE0E943D
:10367000160E1092B30210929C0210929B020E94AE
:10368000620D0E94EF0868EE73E080E090E00E9417
:10369000D8030E94E3080E94AF080E94C10F109255
:1036A000A2021092A1021092A4021092A302109200
:1036B000A6021092A5021092A8021092A7021092E0
:1036C000AA021092A9021092AC021092AB021092C0
:1036D000AE021092AD021092B0021092AF0283E9D6
:1036E00091E00E94FE0EA9CF0E94C10FAA94AB28C0
:1036F00011F40E94AF081C141D040CF467CE8091D5
:103700009B02882309F4CAC001301105A1F480E1AD
:103710000E94E901892B09F487C081E10E94E90137
:10372000892B09F477C08FE00E94E901892B09F009
:1037300071C00E94630E8091A1029091A20218169E
:1037400019060CF0ABC060E08EE00E94120283E02C
:1037500090E00197F1F761E08EE00E9412028BE2A7
:1037600090E00197F1F760E08EE00E941202E0E63F
:10377000F1E06491EEE7F1E0E491F0E0EE0FFF1F7D
:10378000E05CFE4F8591949100E412E42FE030E07C
:10379000462F0E941615611571058105910529F0C6
:1037A0006F5F7F4F8F4F9F4F9F700E947C1D20E067
:1037B00030E048E652E40E94591F0E94CB1F7093EC
:1037C0009802609397026AE070E080E090E00E94C7
:1037D000D8038091A3029091A4028130910509F051
:1037E00070C080919702909198020B970CF04DC099
:1037F000809197029091980202970CF446C00E9423
:10380000160E60ED77E080E090E00E94D803109201
:10381000960244C081E10E94E901892B09F089CF19
:103820008FE00E94E90185CF81E10E94E901892BA7
:1038300051F481E10E94E901892BD9F00E94160E12
:103840001092960278CF8FE00E94E901892B89F7C8
:1038500061E08DE00E9412020E94980D62E370E028
:1038600080E090E00E94D80360E08DE00E941202A8
:1038700062CF8FE00E94E901892B01F361E08DE0C6
:103880000E9412020E946E0DE9CF809197029091E2
:1038900098020B974CF081E080939B028091A302E9
:1038A0009091A4020197F1F5F0920601E0920501D2
:1038B000F0920401E0920301F0920201E092010112
:1038C00031C0892B79F580919702909198020B97DE
:1038D0001CF00E94630EE2CF209197023091980273
:1038E0008091A1029091A2022B3031055CF42091CD
:1038F0009702309198022230310524F081309105F1
:1039000009F482C020919702309198022B30310542
:103910000CF481C020919702309198022B30310530
:103920000CF48EC08091A5029091A6022091A10274
:103930003091A202232B09F091C02091A302309173
:10394000A402232B09F08AC0019739F40E94C10F09
:1039500080919B0281110E942E0E8091A70290916E
:10396000A802019739F40E94AF0880919B0281114F
:103970000E942E0E8091A9029091AA02019739F41B
:103980000E94D80880919B0281110E942E0E809186
:10399000AB029091AC020197049708F076C0809139
:1039A0009F029091A0021816190654F420919902D2
:1039B00030919A028217930709F067C00E940109AB
:1039C00080919D0290919E021816190644F48091F0
:1039D000990290919A02892B11F40E94620D8091B4
:1039E000AF029091B002019711F40E94E30880E0C9
:1039F00090E0892B09F4FBC90E944407882309F44D
:103A0000F6C90E940000EDC90E94160E64EF71E035
:103A100080E090E0FACE2091970230919802223017
:103A200031050CF477CF8230910509F073CF0E94F5
:103A3000980D64EF71E080E090E00E94D8032ECFF3
:103A40002091970230919802223031050CF46ACF10
:103A5000039709F067CF0E946E0DEBCF019711F429
:103A60000E94C10F8091A7029091A802019711F4C2
:103A70000E94AF088091A9029091AA021816190617
:103A80000CF085CF0E94D80882CF8DE00E941604EA
:103A900097CFCF93DF9380916303909164030E944B
:103AA0008222809160039091610397FD03C060E0E2
:103AB0000E944002C0917003D09171038091730302
:103AC00090917403009759F0FC012081318130936B
:103AD000740320937303BE010E94EA0CEFCF809120
:103AE000700390917103DF91CF910C9478010E9443
:103AF000B91D08F481E00895E89409C097FB3EF4ED
:103B000090958095709561957F4F8F4F9F4F99232A
:103B1000A9F0F92F96E9BB279395F69587957795A8
:103B20006795B795F111F8CFFAF4BB0F11F460FF68
:103B30001BC06F5F7F4F8F4F9F4F16C0882311F0C0
:103B400096E911C0772321F09EE8872F762F05C0D4
:103B5000662371F096E8862F70E060E02AF09A956F
:103B6000660F771F881FDAF7880F9695879597F964
:103B70000895990F0008550FAA0BE0E8FEEF1616FE
:103B80001706E807F907C0F012161306E407F50751
:103B900098F0621B730B840B950B39F40A2661F0C5
:103BA000232B242B252B21F408950A2609F4A14068
:103BB000A6958FEF811D811D08950E94F01D0C9424
:103BC000611E0E94531E38F00E945A1E20F0952359
:103BD00011F00C944A1E0C94501E11240C94951E46
:103BE0000E94721E70F3959FC1F3950F50E0551F10
:103BF000629FF001729FBB27F00DB11D639FAA2742
:103C0000F00DB11DAA1F649F6627B00DA11D661F90
:103C1000829F2227B00DA11D621F739FB00DA11DB1
:103C2000621F839FA00D611D221F749F3327A00D6B
:103C3000611D231F849F600D211D822F762F6A2F07
:103C400011249F5750409AF0F1F088234AF0EE0F6C
:103C5000FF1FBB1F661F771F881F91505040A9F799
:103C60009E3F510580F00C944A1E0C94951E5F3FB8
:103C7000E4F3983ED4F3869577956795B795F795D5
:103C8000E7959F5FC1F7FE2B880F911D969587954D
:103C900097F9089597F99F6780E870E060E00895CC
:103CA0009FEF80EC089500240A9416161706180654
:103CB0000906089500240A94121613061406050630
:103CC0000895092E0394000C11F4882352F0BB0FC1
:103CD00040F4BF2B11F460FF04C06F5F7F4F8F4F24
:103CE0009F4F089557FD9058440F551F59F05F3F5F
:103CF00071F04795880F97FB991F61F09F3F79F00E
:103D000087950895121613061406551FF2CF46958F
:103D1000F1DF08C0161617061806991FF1CF869511
:103D20007105610508940895E894BB2766277727F5
:103D3000CB0197F908950E94DD1EA59F900DB49FB9
:103D4000900DA49F800D911D112408952F923F92F4
:103D50004F925F926F927F928F929F92AF92BF929B
:103D6000CF92DF92EF92FF920F931F93CF93DF9347
:103D7000CDB7DEB7CA1BDB0B0FB6F894DEBF0FBEA4
:103D8000CDBF09942A88398848885F846E847D84F1
:103D90008C849B84AA84B984C884DF80EE80FD80F3
:103DA0000C811B81AA81B981CE0FD11D0FB6F89469
:103DB000DEBF0FBECDBFED010895A29FB001B39F3E
:103DC000C001A39F700D811D1124911DB29F700D24
:103DD000811D1124911D08955058BB27AA270E94C8
:103DE000041F0C94611E0E94531E38F00E945A1E3C
:103DF00020F039F49F3F19F426F40C94501E0EF471
:103E0000E095E7FB0C944A1EE92F0E94721E58F3BE
:103E1000BA17620773078407950720F079F4A6F5AF
:103E20000C94941E0EF4E0950B2EBA2FA02D0B01CE
:103E3000B90190010C01CA01A0011124FF27591BEF
:103E400099F0593F50F4503E68F11A16F040A22FF5
:103E5000232F342F4427585FF3CF46953795279566
:103E6000A795F0405395C9F77EF41F16BA0B620B65
:103E7000730B840BBAF09150A1F0FF0FBB1F661FAC
:103E8000771F881FC2F70EC0BA0F621F731F841FEF
:103E900048F4879577956795B795F7959E3F08F015
:103EA000B0CF9395880F08F09927EE0F97958795D7
:103EB00008950E946D1F0C94611E0E945A1E58F0B6
:103EC0000E94531E40F029F45F3F29F00C944A1ED3
:103ED00051110C94951E0C94501E0E94721E68F392
:103EE0009923B1F3552391F3951B550BBB27AA27B3
:103EF00062177307840738F09F5F5F4F220F331FED
:103F0000441FAA1FA9F335D00E2E3AF0E0E832D0B4
:103F100091505040E695001CCAF72BD0FE2F29D0B7
:103F2000660F771F881FBB1F261737074807AB0789
:103F3000B0E809F0BB0B802DBF01FF2793585F4FFE
:103F40003AF09E3F510578F00C944A1E0C94951E51
:103F50005F3FE4F3983ED4F3869577956795B795E0
:103F6000F7959F5FC9F7880F911D9695879597F9EB
:103F70000895E1E0660F771F881FBB1F6217730764
:103F80008407BA0720F0621B730B840BBA0BEE1F79
:103F900088F7E09508950E94D21F6894B1110C949F
:103FA000951E08950E947A1E88F09F5798F0B92FA9
:103FB0009927B751B0F0E1F0660F771F881F991F5E
:103FC0001AF0BA95C9F714C0B13091F00E94941E4E
:103FD000B1E008950C94941E672F782F8827B85F5E
:103FE00039F0B93FCCF3869577956795B395D9F7B6
:103FF0003EF490958095709561957F4F8F4F9F4FC0
:1040000008950E94B91D08F48FEF0895FA01EE0F8C
:10401000FF1F309621053105A1F16115710561F48D
:104020008038BFE39B0749F168949038810561F0BF
:104030008038BFEF9B0741F099234AF5FF3FE10528
:104040003105210519F1E8940894E795D901AA23CF
:1040500029F4AB2FBE2FF85FD0F310C0FF5F70F4D0
:10406000A695E0F7F73950F019F0FF3A38F49F774A
:104070009F930DD00F9007FC9058089546F00C9434
:10408000501E60E070E080E89FE308954FE79F775F
:104090005F934F933F932F930E9401212F913F9164
:1040A0004F915F910E94DD1D0C945E2029F416F063
:1040B0000C944A1E0C94941E0C94501E0E947A1E5E
:1040C000A8F39638A0F707F80F92E8942BE33AEAA2
:1040D00048EB5FE70E94F31D0F920F920F924DB7CE
:1040E0005EB70F920E944921E8E6F0E00E9490201E
:1040F0004F915F91EF91FF91E595EE1FFF1F49F002
:10410000FE57E0684427EE0F441FFA95E1F741950A
:10411000550B0E94C3200F9007FE0C94B720089502
:10412000DF93CF931F930F93FF92EF92DF927B0168
:104130008C01689406C0DA2EEF010E94F01DFE018A
:10414000E894A5912591359145915591A6F3EF01FC
:104150000E94041FFE019701A801DA9469F7DF901D
:10416000EF90FF900F911F91CF91DF9108959B01E8
:10417000AC0160E070E080E89FE30C94591F0C9460
:104180004A1E0C947D210E947A1ED8F39923C9F30C
:10419000940F511DA3F39150504094F059F088238F
:1041A00032F0660F771F881F91505040C1F79E3F35
:1041B00051052CF7880F911D9695879597F90895CD
:1041C0005F3FACF0983E9CF0BB278695779567954E
:1041D000B79508F4B1609395C1F7BB0F58F711F488
:1041E00060FFE8CF6F5F7F4F8F4F9F4FE3CF0C94FF
:1041F000951E16F00C947D210C94501E68940C941E
:104200004A1E0E947A1EA8F39923C1F3AEF3DF93EE
:10421000CF931F930F93FF92C92FDD2788232AF096
:104220002197660F771F881FDAF720E030E040E81B
:104230005FEB9FE3883920F0803E38F021968F773E
:104240000E94ED1EE0E9F0E004C00E94ED1EEDEBDF
:10425000F0E00E9490208B01BE01EC01FB2E6F5715
:1042600071097595771F880B990B0E947E1D28E1B7
:1042700032E741E35FE30E94F01DAF2D9801AE01EC
:10428000FF900F911F91CF91DF910E94041F0C941A
:10429000611EFA01DC01AA0FBB1F9B01AC01BF57D5
:1042A00028F4222733274427507820C0B75190F4B0
:1042B000AB2F0024469537952795011CA395D2F383
:1042C000002071F0220F331F441FB395DAF30ED094
:1042D0000C94EC1E61307105A0E88A07B94630F4F1
:1042E0009B01AC016627772788279078309621F0CC
:1042F000208331834283538308959F3F31F091504F
:1043000020F4879577956795B795880F911D9695B9
:10431000879597F90895AA1BBB1B51E107C0AA1FF7
:10432000BB1FA617B70710F0A61BB70B881F991F56
:104330005A95A9F780959095BC01CD010895A1E209
:104340001A2EAA1BBB1BFD010DC0AA1FBB1FEE1F0F
:10435000FF1FA217B307E407F50720F0A21BB30B5A
:10436000E40BF50B661F771F881F991F1A9469F7D6
:1043700060957095809590959B01AC01BD01CF0132
:104380000895052E97FB1EF400940E94D82157FD36
:1043900007D00E949F2107FC03D04EF40C94D82133
:1043A00050954095309521953F4F4F4F5F4F089561
:1043B00090958095709561957F4F8F4F9F4F089591
:1043C000EE0FFF1F0590F491E02D09940F931F93BA
:1043D000CF93DF938230910510F482E090E0E0917A
:1043E0009203F091930330E020E0B0E0A0E030973A
:1043F00099F42115310509F44AC0281B390B2430E2
:104400003105D8F58A819B816115710589F1FB0120
:1044100093838283FE0111C0408151810281138107
:1044200048175907E0F04817590799F4109761F0B9
:1044300012960C93129713961C933296CF01DF912C
:10444000CF911F910F9108950093920310939303BE
:10445000F4CF2115310551F04217530738F0A90167
:10446000DB019A01BD01DF01F801C1CFEF01F9CFF6
:104470009093930380939203CDCFFE01E20FF31F3D
:10448000819391932250310939832883D7CF20918A
:10449000900330919103232B41F420910B01309133
:1044A0000C013093910320939003209109013091E6
:1044B0000A012115310541F42DB73EB740910D0198
:1044C00050910E01241B350BE0919003F091910364
:1044D000E217F307A0F42E1B3F0B2817390778F0DB
:1044E000AC014E5F5F4F2417350748F04E0F5F1F3A
:1044F0005093910340939003819391939FCFF0E069
:10450000E0E09CCFCF93DF930097E9F0FC01329776
:1045100013821282A0919203B0919303ED0130E0D7
:1045200020E01097A1F420813181820F931F209108
:104530009003309191032817390709F061C0F09377
:104540009103E0939003DF91CF910895EA01CE1794
:10455000DF07E8F54A815B819E0141155105B1F7FE
:10456000E901FB83EA8349915991C40FD51FEC17E8
:10457000FD0761F4808191810296840F951FE90106
:1045800099838883828193819B838A83F0E0E0E032
:1045900012968D919C9113970097B9F52D913C91AE
:1045A0001197CD010296820F931F209190033091B5
:1045B00091032817390739F6309751F51092930374
:1045C00010929203B0939103A0939003BCCFD38336
:1045D000C28340815181840F951FC817D90761F4A8
:1045E0004E5F5F4F88819981480F591F51834083E7
:1045F0008A819B81938382832115310509F0B0CF95
:10460000F0939303E09392039ECFFD01DC01C0CFB2
:1046100013821282D7CFB0E0A0E0E1E1F3E20C9484
:10462000A81E8C01009751F4CB010E94E6218C0159
:10463000C801CDB7DEB7E0E10C94C41EFC01E60F63
:10464000F71F9C0122503109E217F30708F49DC0BF
:10465000D901CD91DC911197C617D70798F0C530D5
:10466000D10530F3CE0104978617970708F3C61BD0
:10467000D70B2297C193D1936D937C93CF010E9466
:104680008222D6CF5B01AC1ABD0A4C018C0E9D1E56
:10469000A0919203B0919303512C412CF12CE12C69
:1046A000109731F5809190039091910388159905A9
:1046B00009F05CC04616570608F058C08091090101
:1046C00090910A01009741F48DB79EB740910D017A
:1046D00050910E01841B950BE817F90708F055C09F
:1046E000F0939103E0939003F90171836083A0CF6D
:1046F0008D919C91119712966C90129713967C90C5
:104700001397A815B90559F56C0142E0C40ED11CE8
:10471000CA14DB0420F1AC014A195B09DA011296D4
:10472000159780F06282738251834083D9016D9323
:104730007C93E114F10471F0D7011396FC93EE938E
:10474000129776CF22968C0F9D1FF901918380835B
:10475000F301EFCFF0939303E093920369CF4816F0
:10476000590608F42C017D01D3019ACFCB010E9498
:10477000E6217C01009749F0AE01B8010E94C823F0
:10478000C8010E948222870153CF10E000E050CF81
:10479000FB01DC0102C001900D9241505040D8F75E
:1047A0000895DC0101C06D9341505040E0F7089539
:1047B000FB01DC0101900D920020E1F7089510E06B
:1047C000C9ECD0E004C0FE010E94E0212196CA3C61
:0847D000D107C9F7F894FFCFEF
:1047D800FF500050005000130100009403800000B7
:1047E8000000005F0D5C0DBD0FBA021704BA021776
:1047F80004BA0217049E01A101AC01BC01C901D28F
:1048080001000000007A07A806D506C7073807E4A4
:10481800062A072F2F272722225C5C6208660C6E67
:104828000A720D7409000D0A0074727565006661DC
:104838006C7365006E756C6C00496E697420006459
:1048480061746100CEA4CEB9CEBCCEAE2023003AAE
:10485800200072656D6F7465416374697665200028
:10486800434C00436865636B20696E6974004F6B45
:1048780000456D707479496E70757400496E636F88
:104888006D706C657465496E70757400496E7661FB
:104898006C6964496E707574004E6F4D656D6F720A
:0A48A8007900546F6F4465657000DD
:00000001FF
